:020000040800F2
:1000000014020020B50B00081D0100080D010008B6
:100010001101000815010008190100080000000086
:1000200000000000000000000000000021010008A6
:100030002501000800000000290100082D0100082A
:10004000FD0B0008FD0B0008FD0B0008FD0B000870
:10005000FD0B0008FD0B0008FD0B0008FD0B000860
:10006000FD0B0008FD0B0008FD0B0008FD0B000850
:10007000FD0B0008FD0B0008FD0B0008FD0B000840
:10008000FD0B0008FD0B0008FD0B0008FD0B000830
:10009000FD0B0008FD0B0008FD0B0008FD0B000820
:1000A000FD0B0008FD0B0008FD0B0008FD0B000810
:1000B000FD0B0008FD0B0008FD0B0008FD0B000800
:1000C000FD0B0008FD0B0008FD0B0008FD0B0008F0
:1000D000FD0B0008FD0B0008FD0B0008FD0B0008E0
:1000E000FD0B0008FD0B0008FD0B000800000000E0
:1000F0000000000000000000000000000000000000
:1001000000000000000000005FF808F1FEE700BFFB
:10011000FEE700BFFEE700BFFEE700BF704700BF7D
:10012000704700BF704700BF704700BF08B5184A4E
:1001300013780133DBB2580713700CD1154B1A68D2
:1001400001321A601B68990618D0134800F0F4F9C0
:10015000124800F075FA104800F020FA104B1A8887
:1001600092060AD50F4A9888D2F88430591C01F0BB
:100170007F01D054C2F8841008BD08BD064A11782A
:100180009729E2D9C3F38213683B1370DDE700BF00
:10019000E00200200407002014020020F8020020E2
:1001A00000380140540200200D4B30B5A3FB002362
:1001B0000C4ADB0883B003EB8305548801A9A0EB4C
:1001C000450000F1300530330A4607488DF80550E8
:1001D0008DF804308DF8064000F0B4F903B030BD5E
:1001E000CDCCCCCC000D000814020020F8B50A4D8F
:1001F00007460E4600F040FB286800F07DFB56B134
:1002000028680024395900F099FB2B680434181D24
:10021000A6422860F6D8F8BDE40200202DE9F003DC
:100220000E4F00230E4CDFF84C90DFF84C800D4D44
:100230000D4E0E49DFF844C03B70C4F88430C9F855
:100240000030C4F88030A8F800302E600A46084814
:10025000BDE8F0038CF8003000F074B9E102002032
:1002600054020020E402002000100008040D0008E1
:1002700014020020F0020020F402002000070020F9
:10028000F028F8B503D9F72801D00120F8BD454B77
:10029000454C197822780131012A197024D01AD3DB
:1002A000022AF2D1C2B2150645D4404B1968CC07D8
:1002B00036D53F4C3F4D208802F00F022E5CB0F542
:1002C000806F42EA06022A5430D301302080013187
:1002D00019600120F8BD354B37491A68895C8142A5
:1002E00015D000201860F8BD0606304B35D41D68C7
:1002F000324E691C022970551960C6D1304E002556
:100300002B4F3570217010463D801D60F8BD0132C5
:10031000062A1A60B9D1002201201A602070F8BDA7
:10032000234A244C12880001A054D0E7244D2E7893
:1003300032442A70C9E7F728A7D1204A13787F2BC7
:1003400026D01B4840F201410088884209D0174B53
:10035000002222701A600220F8BD00201860207070
:10036000F8BD7E2BF3D15378002BF0D1114A144BFA
:1003700092F800241B789A42E9D14FF480610D482D
:10038000FFF734FF0F4A094B117801311170DFE795
:100390005378002BDBD1054B1A68002AD8D10320F3
:1003A000F8BD00BFED02002000070020F002002091
:1003B000F4020020FC020020F80C0008E8020020F3
:1003C000EC020020E102002038B500F0DDF9012147
:1003D00044F61C0000F08CFB0B4B00240B481C6007
:1003E00000F016F90A4800F07BF80A4800F04AF9D4
:1003F000094B0A4940F6B735F0205D60072281F8C5
:1004000023009C601A6038BD04070020F802002019
:1004100014020020DC02002010E000E000ED00E00B
:10042000F8B5FFF7D1FFFFF7F9FE2548012100F0ED
:100430000FFB68B9234C244E244D0027D5F88420A7
:10044000D5F880302149D31A5B0607D1002FF4D0AC
:1004500000F054F91E4800F08BF9FEE7002FF7D1A9
:10046000D1F88030C85C013303F07F03C1F88030DD
:10047000FFF706FF02281ED003280FD00028DDD189
:10048000144915480A4600F05DF8226802F57A72B0
:1004900023689A42FCD2FFF7C1FECFE70F490E480E
:1004A0000A4600F04FF8226802F57A7223689A42F1
:1004B000FCD20127C2E73078FFF776FEBEE700BF27
:1004C0000008014004070020E1020020540200203F
:1004D000001000080C0D000814020020080D000890
:1004E00070B5144E82B0044603223046102301A991
:1004F0004FF47875ADF804508DF8062000258DF87E
:10050000073000F04BFA4FF4807333612046E586E4
:1005100025872021022200F073FB2021A01C0A461F
:1005200000F06EFB06232586658684F82B506387D2
:1005300002B070BD000C01400323406280F82930F6
:10054000704700BF10B50222044600F0A3FB002351
:1005500084F82A3010BD00BF0F4B4FF4807210B4E6
:100560005A61022408230C4A8020506111F0010FC7
:100570004FF4007014BF10615061074A8020013BA6
:100580004FEA51011061EED1013CEBD14FF4807381
:1005900013615DF8044B7047000C014070B5038F88
:1005A00090F8292004469A4205D390F82B206AB18E
:1005B000828F7F2A0AD9E08E1249134A31F810102F
:1005C000013303F003035161238770BDE28E0D4EAA
:1005D000531C36F812100C4D03F00103626A696176
:1005E000E386D25C094B204633F81210FFF7B4FFC4
:1005F000238FE28E013336F8122003F003032A61C1
:10060000238770BD100F0008000C0140100D00087A
:1006100030B583B00446012248230725074801A9C5
:100620008DF80730ADF804508DF8062000F0B6F9CB
:10063000FF232370A370637003B030BD0008014036
:10064000F8B50F4D044607780121284600F000FA5E
:100650007F00FFB23843207002212846667800F000
:10066000F7F97600F6B2A37830436070042128468B
:100670005D0000F0EDF9EDB22843A070F8BD00BFB9
:100680000008014070B51B4E86B0304601A94FF4FA
:10069000007203251823184CADF804208DF806507D
:1006A0008DF8073000F07AF9304601A94FF48062E6
:1006B00004238DF80650ADF804208DF8073047F676
:1006C000122500F06BF900230C22204602A9ADF898
:1006D0000C30ADF80E30ADF81030ADF81430ADF888
:1006E0001220029500F010FA2046012100F054FA81
:1006F00006B070BD0008014000380140164A174896
:1007000010B4174B4FF0FF310424C2F88010C2F828
:100710008410C2F88011C2F8841104601968114A6B
:1007200041F00101196014680F491048214011601F
:100730001968002421F0847121F48031196019684E
:1007400021F480211960136823F4FE031360046010
:100750005DF8044B704700BF00E100E010E000E0EE
:1007600000100240A01002400000FFF840110240BB
:1007700010B54468006800F003F8A04710BD00BF42
:1007800080F30888704700BF384B10B41968384AA6
:1007900041F0010119605C6883B022405A601A6818
:1007A000002122F0847222F480321A601A684FF419
:1007B0001F0022F480221A605A6822F4FE025A6056
:1007C0009860009101911A6842F480321A6003E047
:1007D000009BB3F5A06F0AD0244B1B6803F40033D1
:1007E0000193009B01330093019B002BF0D01F4B22
:1007F0001B6813F4003318BF01230193019B012BE5
:1008000000D0FEE71B4A194B116841F0100111603E
:10081000116821F003011160116811605A685A6073
:100820005A685A605A685A605A6822F47C125A60B0
:100830005A6842F498125A601A6842F080721A603C
:100840000A4B1A689201FBD55A6822F003025A60DB
:100850005A6842F002025A60044B5B6803F00C03D2
:10086000082BF9D103B05DF8044B7047001002402B
:100870000000FFF800200240024B0349034A596080
:100880005A6070470020024023016745AB89EFCDD5
:10089000084BDA68D1070BD4DA68520701D5022079
:1008A0007047DB6813F0100F0CBF04200320704763
:1008B000012070470020024010B582B00446FFF7C7
:1008C000E7FF012812D1A4B1FF2300220192019376
:1008D000019B2BB1019B013B0193019B002BF9D1A3
:1008E000FFF7D6FF012804F1FF34ECD00CB102B0C1
:1008F00010BD052002B010BD38B5054640F6FF70AA
:10090000FFF7DAFF042800D038BD0B4C40F6FF702B
:10091000236943F0020323616561236943F04003C7
:100920002361FFF7C9FF0528EED0226941F6FD7368
:100930001340236138BD00BF0020024070B5002382
:1009400082B005460F200C460193FFF7B5FF04283F
:1009500001D002B070BD104EA3B232690F2042F038
:10096000010232612B80FFF7A7FF042808D0052879
:10097000EFD0326941F6FE731340336102B070BDAF
:1009800002350195019B240C1C800F20FFF794FF7A
:100990000528EED1DDE700BF00200240F0B4CD789D
:1009A000EB0648BF8B78098805F00F0648BF1E4349
:1009B00011F0FF0F20D00768002302E00133082B5D
:1009C00019D001229A4002EA01049442F6D19A0019
:1009D0004FF00F0C0CFA02FC06FA02F227EA0C07A1
:1009E000282D47EA020731D0482D03F1010308BF43
:1009F0000461082BE5D10760FF2923D9476800234C
:100A000002E00133082B1CD0012403F1080204FA90
:100A100002F202EA01049442F3D19A004FF00F0C63
:100A20000CFA02FC06FA02F227EA0C07282D47EA24
:100A3000020709D0482D03F1010308BF0461082B08
:100A4000E2D14760F0BC70474461DAE74461B5E742
:100A5000836819420CBF0020012070471F4930B441
:100A60004B6803F00C03042B01D0082B20D01C4A48
:100A700002601A4B1B495D681B4CC5F303154D5DA5
:100A8000EA4042605D68C5F302254D5D22FA05F536
:100A900085605D68C5F3C225495DCA40C2605B6878
:100AA000C3F38133E35C30BCB2FBF3F20261704705
:100AB0004A684B68C2F38342DC0302F1020207D5A5
:100AC0004B689B0304D4064B03FB02F20260D0E7A1
:100AD000064B03FB02F20260CBE700BF00100240AE
:100AE00000127A00040000200000002000093D00F0
:100AF000044B9A6919B922EA0000986170471043C3
:100B00009861704700100240038ACA889BB223F4A0
:100B10004053134330B50382828904460B89888889
:100B20000D4692B24989034322F4B0520B4322F09E
:100B30000C0213439BB2A381A38AAA899BB223F41C
:100B4000407387B01343A38201A8FFF787FF049A7D
:100B50000F48039B2968844208BF134603EB8303B5
:100B60008A0003EB83030B49B3FBF2F3A1FB0302FF
:100B70006420520902FB10331B013233A1FB030135
:100B8000C1F3431141EA021292B2228107B030BD93
:100B9000003801401F85EB51838929B923F40053A4
:100BA0001B041B0C838170479BB243F40053838169
:100BB000704700BF002100F004B80B4B5B58435056
:100BC00004310A480A4B42189A42FFF4F6AF094A28
:100BD00000F003B8002342F8043B074B9A42FFF4AD
:100BE000F9AFFFF71DFC70472C0F00080000002034
:100BF000140000201402002008070020FFF7FEBFA9
:100C0000F0B4840743D0541E002A3ED0CDB2034630
:100C100003E0621E002C38D0144603F8015B9A07EB
:100C2000F7D1032C2AD9CDB245EA05250F2C45EA88
:100C3000054515D9A4F110073F0903F1100606EB8D
:100C400007161A46156055609560D5601032B2429D
:100C5000F8D104F00F040137032C03EB07130DD96F
:100C60001E462246043A032A46F8045BFAD8221F9D
:100C700022F003020432134404F003042CB1C9B27D
:100C80001C4403F8011BA342FBD1F0BC704714467F
:100C90000346C6E740EA01039B0770B42AD1032A42
:100CA00028D90C460346214654F8045BA5F10136C9
:100CB00026EA050616F0803F05D1043A032A43F8D8
:100CC000045B2146EFD89AB10C78013A1C700133CD
:100CD0003CB16AB111F8014F013A03F8014B002C05
:100CE000F7D12AB11A44002103F8011B9342FBD12A
:100CF00070BC70470346E6E7F0002102000B0000DD
:100D000030300000982000004F4B0000457200007A
:100D100000000000000000000000000000000000D3
:100D200000000000000000000000000000000000C3
:100D300000000000000000000000000000000000B3
:100D400000000000000000000000000000000000A3
:100D5000000010010005547154B58824249B000143
:100D6000009C00F0B8035401080044001000880003
:100D700088FC806044D840F0446444B444BC908013
:100D800044FC44F410010801A000441008029084BF
:100D900050FC44EC50F1009C10F1449C448C40BC4D
:100DA000446C10910078A40C001C806E206E00FC36
:100DB00044CC20FC64CC44B41081007C880C286CAA
:100DC000A80290028890009C200200F028000010E9
:100DD000000244F8241C44184870049C048C40F21F
:100DE000442C54104030B001100154285020443895
:100DF000848C64C4500040B2041C003808082828C1
:100E0000A80240720C100C921001E0904400000007
:100E1000A060080E80822810E0000C0280033800D9
:100E2000886088481800280000EC14081011402E33
:100E300008FC04FC00FE00FD80FC40FC20FC10FCD3
:100E400000C000E0007000380018001C008C00C4D6
:100E5000FCFF000000000000000000000000000097
:100E60000000000000000000000000000000000082
:100E70000000000000000000000000000000000072
:100E80000000000000000000000000000000000062
:100E90000000000000000000000000000000000052
:100EA0000000000000000000000000000000000042
:100EB0000000000000000000000000000000000032
:100EC0000000000000000000000000000000000022
:100ED0000000000000000000000000000000000012
:100EE0000000000000000000000000000000000002
:100EF00000000000000000000000000000000000F2
:100F00000000000000000000000000000000FCFFE6
:100F100040002000F8B500BFF8BC08BC9E467047F2
:0C0F2000F8B500BFF8BC08BC9E46704746
:100F2C00020406080000000001020304010203048D
:040F3C000607080993
:0400000508000000EF
:00000001FF
