:020000040800F2
:10100000C40400205DA20008698500085985000815
:101010005D85000861850008658500080000000006
:101020000000000000000000000000006D850008C6
:1010300071850008000000007585000879850008AA
:10104000A5A20008A5A20008A5A20008A5A2000864
:10105000A5A20008A5A20008A5A20008A5A2000854
:10106000A5A20008A5A20008A5A20008A5A2000844
:10107000A5A20008A5A20008A5A20008A5A2000834
:10108000A5A20008A5A20008A5A20008A5A2000824
:10109000A5A20008A5A20008A5A20008A5A2000814
:1010A000A5A20008A5870008A5A20008A5A200081F
:1010B000A5A20008A5A20008A5A20008A5A20008F4
:1010C000A5A20008A5A20008A5A20008A5A20008E4
:1010D000A5A20008A5A20008A5A20008A5A20008D4
:1010E000A5A20008A5A20008A5A200080000000013
:1010F00000000000000000000000000000000000F0
:1011000000000000000000005FF808F10023FF224B
:1011100003608380827100F10803483000221A7056
:101120005A705A8004339842F8D170472DE9F00F75
:101130009A4282B000913CDC0021DFF880A0DDF80B
:1011400028B001916FF00049002ADDF80080B4BF9B
:1011500002F5C06111463AF811509044014600264C
:10116000B1F90A40144FC4EB080404F5904487FB1E
:1011700004C74FEAE47CCCEB272707EB4707A4EB37
:1011800047243AF814404F7A013607FB04554D4581
:1011900001F1040101DC102EE2D1A94501DDA946CF
:1011A00001925A449342CFDA019802B0BDE8F00FA1
:1011B000704700210191F7E7ABAAAA2AA8CC000842
:1011C00030B4031F0478457807E02CBF00220122C9
:1011D000023B72B19A88028008469A78991C944220
:1011E000F3D1DA78023BAA4294BF00220122002AFE
:1011F000F0D10470457030BC704700BF88422DE9C3
:10120000F047064689462BD0841CA14228D0051DF4
:1012100011E0521094F801A004D05200A81A3146EF
:1012200009F0B8F8C145377086F801A005F102054C
:1012300004F1020414D015F8027C3378A8469F42CA
:1012400010D02CBF00230123A21B2046002BE0D18D
:10125000FFF7B6FFC14505F1020504F10204EAD12A
:10126000BDE8F087737815F8012C9A422CBF002353
:101270000123E9E72DE9F00302F1FF3C0CEBDC7CF4
:101280004FEA6C0C82B06145ADF80430B8BF0B4634
:101290006CDA5D1C6B0003F10044013C10F8146033
:1012A00010F8258000EB4409B0451F4600EB85048B
:1012B00035D02CBF0026012616B1013B00EB4304BC
:1012C0002688C519634525F8026CE2DBD50705D4ED
:1012D000023A02EBD272B3EB620F3BD08B429DF825
:1012E00004609DF805C013DD5A1E02EBD272521045
:1012F00010F8125000EB4204B54225D02CBF002755
:101300000127551E05EBD5756D1087B900EB430419
:10131000267084F801C002B0BDE8F003704766781B
:1013200099F80150AE422CBF00260126C4E7278859
:10133000914220F81370EBDA13462A4610F8125047
:1013400000EB4204B542D9D1677867452CBF00272E
:101350000127D6E701335B0003F10042013A30F880
:101360001220013B228000EB4304B7E700EB41046D
:101370000B46ABE72DE9F04F0B1A212B85B08246C7
:10138000934640F3FB80002A00F0C78000F1020979
:101390009B101AF813209AF802000BF1FF3B9042C1
:1013A0000AEB430400F0A0802CBF00250125002D8E
:1013B0006DD011F8025CAA4200F0A7802CBF002279
:1013C0000122002A72D1A84200F0E3802CBF002342
:1013D0000123002B79D09AF800309AF8010031F8F7
:1013E000024C1A46AAF8004001F8010C01F8023C30
:1013F0009AF8026008464D462C469AF80050A046DE
:10140000AE4208D02CBF002301236BB1A678023472
:10141000AE42A046F6D19AF8013067789F422CBFC1
:1014200000230123002BF1D1A0F1020E734607E047
:1014300094BF002701271A1A77B11EF80220023B39
:10144000AA42F5D19AF801705A7897422CBF00272A
:1014500001271A1A002FF0D1A3420BD962781888FD
:10146000254625F8020B5A701E70A67813F8022C38
:101470001846C1E720465A46FFF77CFFCAEB040333
:10148000212B7BDDBBF1000F48D0214680E711F80E
:10149000025CA84230D02CBF00200120A8B9AA428B
:1014A0006FD02CBF00220122002A94D19AF801208B
:1014B0009AF800002588AAF800500AF81300627014
:1014C00011F8022C9AF8026094E7B9F800209AF813
:1014D00000609AF801308AF80260AAF800208AF8C1
:1014E000033011F8022C85E765789AF80360AE4264
:1014F0002CBF002501255AE711F8010C9AF803606A
:1015000086422CBF00200120C8E711F8012C667824
:1015100096422CBF0022012253E788465E10B41E7B
:1015200064100AEB4407002500E0013C7B5B4FF0B0
:101530000002ADF80C308DF80020039B5046214688
:101540003246023DFFF796FE002CEED1444634F8B9
:10155000023DBAF80000ADF80C30CAEB04054FF0BC
:10156000000128F8020C039B8DF800106A10504609
:101570000021FFF77FFE032DA046E7DC05B0BDE8A4
:10158000F08F11F8012C607890422CBF00220122CC
:101590008AE711F8013C9AF803209A422CBF0023F5
:1015A000012316E72DE9F04F002389B003700446AC
:1015B000009104AB002203F8012B08A98B42F9D15A
:1015C0006078002800F0218100F1FF3C5FFA8CFC7C
:1015D0000CF1010C13464FEA4C0C1746914607E0FC
:1015E0000233012163455FFA86F902F8101C15D019
:1015F000E218917808AA0A4412F8105C09F1010671
:10160000002DEDD0092908BF013703F1020308BFFF
:10161000FFB20121634502F8101CE9D1B9F1000FB6
:1016200000F0F3800025AC468445A8463CD20CF17E
:10163000010A5FFA8AFA824533D24FEA4C0C5346CC
:1016400003E00133DBB298422BD904EB0C018A781A
:101650005D00092A04EB0506F3D096F802E09645F2
:10166000EFD1F678C97806F1010E714501F1010B51
:1016700001D05E45E5D1B1428CBF2D1904EB0C05BC
:101680000335287808F1080104EB4101C8708A701D
:1016900060780133DBB208F1010898425FFA88F8FC
:1016A000D3D8D4468445C2D304EB480604F11203D0
:1016B0001236B34201931BD0F51A6A10B2FA82F2C5
:1016C000C2F11F02520018463146FFF753FE212D8A
:1016D00040F3AA8004F1320529460198FFF78EFDF8
:1016E000AE4205D028460235FFF76AFDAE42F9D179
:1016F00008EB0903DBB2012B00F0A0803B44DBB216
:10170000022B00984FF000010CBF0122022201F0D1
:10171000A9FA6078002878D008F1FF3904F11403A1
:101720005FFA89F9002603EB4909B246CDF80C802F
:101730000293C846B146264605E009F101035FFA67
:1017400083F948455ED906EB490797F802B008AD22
:101750005D4415F8102C002AEFD0009B4FF4D07494
:1017600004FB0A346434204600215A4601F0E6FFA7
:10177000BBF1090F20464FF0010149D0002201F0D2
:10178000DDFF7F222046022101F0D8FF002205F86C
:10179000102C039B5BB3029D019F03E0454526D0BF
:1017A0002F4602353B785B45F8D1204602217A78F6
:1017B00001F0C4FF0AF1010A009B5FFA8AFA4FF4B4
:1017C000D07404FB0A346434204600215A4601F0E8
:1017D000B5FF7A7820460132D2B2012101F0AEFF86
:1017E000204602217F2201F0A9FF4545D8D170781B
:1017F00009F101035FFA83F90AF1010A48455FFA2A
:101800008AFAA0D8BAF1030F39D009B0BDE8F08F39
:10181000FA7801F093FFFA782046022101F08EFF5A
:10182000012205F8102CB4E731460198FFF7E6FCD9
:1018300008EB0903DBB2012B7FF460AFA578092D1B
:1018400035D06378022B26D82BD1009800210322B3
:1018500001F008FA009B2A4603F1640420460021A7
:1018600001F06CFF20460121002201F067FF2046B5
:1018700002217F2209B0BDE8F04F01F05FBF009B5D
:10188000012103F244542046002201F057FF204674
:1018900002210022EEE700980021042201F0E2F983
:1018A000D8E700210A46009801F0DCF9D2E7009859
:1018B0000021082201F0D6F96378002BA5D0009B07
:1018C000002703F164053E46E31993F80380284698
:1018D0004246012101F032FF28464246022101F032
:1018E0002DFF28460021092201F028FF01366378E8
:1018F000F6B2B34207F1020705F5D07585D9042E7B
:10190000E2D182E730B40D4D0D4C0023EA18127A73
:101910000C49403A002AD4BF6FF03F00402000EB52
:10192000C21281FB0201D217C2EB6112E11801332E
:101930000C2BCA71EAD130BC704700BF580600209A
:10194000EC0600201F85EB510A4B0B4A10B403F143
:101950001804597A187AA1F5005101EBC01102332D
:1019600041F38911A34202F8011FF2D15DF8044B43
:10197000704700BF58060020F2060020F8B5594D08
:10198000AB79012B06D0112B30D0202B3FD0212B4F
:1019900053D0F8BDEF79DFF868C1002F47D1297A1D
:1019A0008CF80070F72900F095804F4E00243246E5
:1019B000334601E0412868D80901C9B2197050784E
:1019C0000232084303F8010B11780444F729C6EBEF
:1019D0000300E4B2EED1461E3544297A641AE4B21B
:1019E0008C4256D0FF238CF80030F8BDEB79002BE9
:1019F000CFD12B7A002BCCD16B7A002BC9D1AB7A0B
:101A0000F72BC6D1BDE8F840384804F0E9BDEB79C2
:101A1000002BBED12B7A002BBBD16B7A002BB8D117
:101A2000AB7AF72BB5D1324B01221A70F8BD9CF876
:101A3000003001339F42ACD1B1E7EB792D4C191145
:101A400003F00F022C48CBB2032B2270037017D87F
:101A50000A2A15D8294C6B7A4FF4CC7606FB014143
:101A6000287A1B02EC7A43EA0033A87A234343EA3C
:101A7000001304310C32012021F812304875F8BDF2
:101A80001A48BDE8F84004F0DDBC461E3544297A0A
:101A9000A4E7A6B1154CD7B93846C4F80074831929
:101AA000B3F5806F3FF675AF20440F49324608F01A
:101AB000FBFBD4F800343344C4F80034F8BD002FE5
:101AC0003FF467AF0948BDE8F84004F001BED4F820
:101AD0000004E4E77B42DBB29F4283D14FF0FF3644
:101AE000D8E700BF580600206006002064150020DB
:101AF00018050020E806002044050020CC0D002039
:101B0000190500202DE9F0010F48104CDFF8508036
:101B10000F4F104A104E114DDFF848C00023FF212F
:101B2000C4F8843088F80030C4F880303B70C0F8C6
:101B300084303170C0F88030297053628CF80030E6
:101B40001362BDE8F001704748050020D005002071
:101B5000180500201C05002044050020E806002090
:101B60000C05002019050020F8B5124B124D1F7806
:101B7000EB1913F8013CF72B00D0F8BD0F4C04F122
:101B8000500C637ABB4205D0FF2B03D01034644560
:101B9000F7D1F8BD267A56B10023E25CE95C013347
:101BA0009142D8B201D0FF2AF0D1B042F5D3E36818
:101BB0009847F8BD0C0500205806002074A60008C0
:101BC0002DE9F003614BD3F88470D3F880403F1BBC
:101BD00017F07F07F7D15E4E06F1060816F801CF21
:101BE000D3F88040D3F884507F34641B6406574D8B
:101BF000F6D0D5F88440464504F1010909F07F0983
:101C000005F804C0C5F88490E8D1D3F88040D3F833
:101C100084507F34641B66064C4DF6D0D5F8844062
:101C20004FF0010C04EB0C0606F07F0605F804C02B
:101C3000C5F88460D3F88040D3F884507F34641BA7
:101C40006406424DF6D0D5F88440661C06F07F0647
:101C50002855C5F88460002A76D000252E46C85D38
:101C60000F440644F6B24FEA101CD3F88000D3F8B4
:101C700084407F30001B4006344CF6D0D4F88400FA
:101C800000F1010808F07F0804F800C0C4F884805F
:101C900097F800C00CF00F0CD3F88000D3F8844004
:101CA0007F30001B4706294CF6D0D4F8840001355C
:101CB000EDB2471C07F07F079542C4F8847004F822
:101CC00000C02F46CBD3340906F00F02D3F88010A2
:101CD000D3F884007F31091A4D061C48F6D0D0F89D
:101CE00084104D1C05F07F054454C0F88450D3F88F
:101CF0008010D3F884007F31091A4C061348F6D0BF
:101D0000D0F884104C1C04F07F044254C0F8844086
:101D1000D3F88020D3F884107F32521A50060B4932
:101D2000F6D0D1F88420F724501C00F07F008C54AA
:101D3000C1F88400D3F88410D3F880208A1A5206A0
:101D4000F8D1BDE8F00370471446BFE7480500200E
:101D500073A60008F8B50746B1B10D460026402D20
:101D600034BF2C464024304639462246FFF728FF30
:101D700001362D1B2744F6B2F1D1002130460A4628
:101D8000BDE8F840FFF71CBF0E46F6E738B590F8FF
:101D900060300546002463B14FF4D07000FB04505E
:101DA000643003F067FF013495F86030E4B2A34279
:101DB000F2D80C4A0023516AFC204C1C04F01F048A
:101DC000505485F856305462A5F85830A5F85A306A
:101DD00085F8203085F8223085F82130C5F8683D37
:101DE00038BD00BF1C0500202DE9F047044600F176
:101DF00007094A488846FFF789F94B4604F1130161
:101E0000002203F8012B8B42FAD104F16406174635
:101E10003546284607F5D07701F026F9B7F5D06F9B
:101E2000C5F8D09005F5D075F3D1002504F2E4672C
:101E30007819414605F5CC7506F01AF8B5F5CC6F62
:101E4000F6D100230121022207207F254FF0780AD6
:101E50004FF004094FF032084FF0060C4FF0030E1C
:101E6000E17084F8791084F8821084F8692084F88D
:101E7000782084F87F2084F8203084F8223084F899
:101E80002330A370A3712375637584F8643084F8DC
:101E9000653084F8673084F8753084F8743084F8DD
:101EA000773084F8763084F87B3084F87C3084F89E
:101EB0007D3084F87E3084F8853084F8833084F86F
:101EC00001A0207184F8059084F8665084F8685069
:101ED00084F87A8084F884C004F19D0284F8940028
:101EE00004F21D1184F8963084F8973084F8983005
:101EF00084F895E0802300251370557002329142DA
:101F0000F8D1012284F89C503046394684F860208C
:101F10002B4601F0B7FB2570BDE8F087C404002014
:101F2000F8B590F8203004460E46002B49D190F8C1
:101F30002330002B45D14278272A43D82B4A01254C
:101F4000506A002300EB050C4FF6FF71FA270CF0E6
:101F50001F0CC2F824C084F8513084F8223084F871
:101F6000523084F85630A4F85C3084F85E30A4F81F
:101F7000541084F85010175484F8216084F82050CD
:101F800004F1380304F150014FF6FF7223F8022BDD
:101F90009942F9D194F8603000256BB14FF4D070BC
:101FA00000FB05403146643001F0CEF9013594F86C
:101FB0006030EDB2AB42F1D80023C4F8683DE3864F
:101FC000F8BDF8BD0A480B4F00FB02F0A1780A4D9E
:101FD000A7FB002005FB01F1C0080B2284F8343078
:101FE0006362A062E16284F83020A7E71C0500204C
:101FF0000DBB0200CDCCCCCC063A6D0090F8203061
:102000000BB1FFF7C3BE7047F8B5B0F858300546BE
:1020100013B1013BA0F85830B5F85A3013B1013B69
:10202000A5F85A30EB8E2E460133EB8605F11807E2
:10203000348F84B995F860307BB14FF4D07000FBD9
:102040000450643003F0A8FD013495F86030E4B228
:10205000A342F2D8348F230401D4013C34870236E2
:10206000BE42E5D105F2E46005F062FF05F67C00B2
:1020700005F05EFF05F6142005F05AFF05F6AC30BA
:10208000BDE8F84005F054BF70B5037882B004464F
:102090000D460A2B76D8DFE813F07700C80014014C
:1020A000300114017700300114014B010B001401C1
:1020B00090F82D07B4F80237B4F80C1704EB400081
:1020C000B0F81607591A00FB01F1A3EB11432B805E
:1020D00094F8C508B4F89A38B4F8A41804EB400092
:1020E000B0F8AE08591A00FB01F1A3EB11436B8065
:1020F00094F85D0AB4F8323AB4F83C1A04EB4000A4
:10210000B0F8460A591A00FB01F1A3EB1143AB806A
:1021100094F8F51BB4F8CA3BB4F8D40B04EB4101B6
:10212000B1F8DE1B181A01FB00F094F8F816A3EBC7
:102130001043EB8029B1B4F83E17D1F1010138BF4B
:102140000021117094F890382BB1B4F8D638D3F13F
:10215000010338BF00235370A379002B00F01D81C9
:10216000B4F85830002B40F02F81B4F85A100023F7
:102170009370002956D16379002B40F0078194F8C1
:102180002030D37002B070BDB0F8FA3690F8F8166F
:102190002B8090F82667B0F80237B0F80C0776026B
:1021A000B6B2181A06FB00F0A3EB10436B8094F84C
:1021B0002D67B4F80237B4F80C0704EB4606B6F8FE
:1021C0001667181A06FB00F0A3EB1043AB8094F8D7
:1021D0002E67B4F80237B4F80C0704EB4606B6F8DD
:1021E0001667181A06FB00F0A3EB1043EB8029B129
:1021F000B4F83E17D1F1010138BF0021117094F8F5
:10220000F83623B1B4F84037003318BF0123B4F8CF
:1022100058105370002947D1B4F85A3000219170FA
:10222000002BA8D00123D370ACE7B0F8FA3690F8B1
:10223000F8162B80B0F892386B8090F82D67B0F8C4
:10224000023700EB4606B0F80C07B6F81667181A06
:1022500006FB00F0A3EB1043AB8094F8C568B4F81C
:102260009A38B4F8A40804EB4606B6F8AE68181A13
:1022700006FB00F0A3EB1043EB8029B1B4F83E1746
:10228000D1F1010138BF0021117094F89038002B72
:10229000BDD0B4F8D638B4F85810D3F1010338BF24
:1022A000002353700029B7D0237D002B71D06379B0
:1022B000002B6ED0B4F85A30002BAFD101239370AD
:1022C00059E7B0F8FA1690F8F8362980B0F8921865
:1022D0006980B0F82A1AA980B0F8C21BE9802BB136
:1022E000B0F83E37D3F1010338BF0023137094F8E0
:1022F0009038002B3FF42FAF27E7B0F8FA3690F86C
:10230000F8162B80B0F892386B8090F82D67B0F8F3
:10231000023700EB4606B0F80C07B6F81667181A35
:1023200006FB00F0A3EB1043AB8094F8C66896E779
:1023300000F2E460019205F021FF288004F67C00A1
:1023400005F01CFF688004F6142005F017FFA88034
:1023500004F6AC3005F012FF94F8F836019AE880E4
:1023600023B1B4F84037003318BF0123137094F839
:10237000F836002B3FF44BAFB4F84037002B3FF456
:1023800046AF94F89038002B83D140E70023D370F8
:10239000F8E6B4F85A30012141E794F8283A2BB115
:1023A000B4F86E3AD3F1010338BF0023937094F868
:1023B000C03B002B3FF4E5AEB4F8063CD3F101037B
:1023C00038BF0023D370DDE6237D3BB163792BB1A9
:1023D000B4F85A1000293FF471AFC8E6B4F85A10A7
:1023E0000123C5E603780A2B6BD8DFE803F0563BE0
:1023F0000D3B0D563B0D06060D00FF230B704B7079
:102400008B70CB700020704790F85837D3F10103E0
:1024100038BF00235B420B7090F8F038002B0CBFE4
:10242000FF2301234B7090F8883A002B0CBFFF2349
:1024300002238B7090F8203C002B0CBFFF2303235A
:10244000CB7090F85837002B39D190F8F038002B2A
:1024500035D190F8883A93BB90F8200C003018BF23
:1024600001207047FF230B704B7090F85837D3F161
:10247000010338BF00235B428B7090F8F038002BCB
:102480000CBFFF230123CB7090F85837BBB990F8ED
:10249000F008003018BF01207047FF230B704B700D
:1024A0008B7090F85837D3F1010338BF00235B429B
:1024B000CB7090F85807003018BF012070470120FA
:1024C00070470020704700BF10B490F8443DC3B17E
:1024D00090F8453D072B14D80C1D0A46002302F83E
:1024E000013B9442FAD190F8452D3AB1FF22CA54EB
:1024F00090F8452D0133DBB29A42F7D85DF8044BD2
:10250000704703780A2BF9D8DFE803F0296E489367
:10251000482993484806480090F82D3700EB4303BC
:10252000B3F816371B120B7090F8C53800EB430355
:10253000B3F8AE381B124B7090F85D3A00EB4303D2
:10254000B3F8463A1B128B7090F8F53B00EB430052
:10255000B0F8DE3B1B12CB705DF8044B704790F86F
:10256000F8362BB1B0F83E37002B0CBFFF23002309
:102570000B7090F826375B004B7090F82D3700EB0E
:102580004303B3F816371B128B7090F82E3700EB0D
:102590004300B0F816371B12CB70AFE790F8F8364F
:1025A00023B1B0F83E37002B78D000230B7090F8A1
:1025B000903823B1B0F8D638002B64D000234B708C
:1025C00090F8283A23B1B0F86E3A002B56D0002389
:1025D0008B7090F8C03B002BBDD0B0F8063C002BB0
:1025E00056D00023CB70B7E790F8F8362BB1B0F88F
:1025F0003E37002B0CBFFF2300230B7090F8903860
:102600002BB1B0F8D638002B0CBFFF2300234B7042
:1026100090F82D3700EB4303B3F816371B128B707D
:1026200090F8C53800EB4300B0F8AE381B12CB7001
:1026300064E790F8F8362BB1B0F83E37002B0CBFAA
:10264000FF2300230B7090F890382BB1B0F8D638E8
:10265000002B0CBFFF2300234B7090F82D3700EBAD
:102660004303B3F816371B128B7090F8C63800EB93
:102670004300B0F8AE381B12CB703FE790F8563AE3
:102680005B00DBB2A4E790F8BE385B00DBB296E7F4
:1026900090F8EE3B5B00DBB2CB705DE790F826373D
:1026A0005B00DBB282E700BF2DE9F041044600F198
:1026B0006407384604F5017803F0E8FA404603F071
:1026C000E5FA04F5697003F0E1FA04F2E46604F255
:1026D000445003F0DBFA304605F03CFD04F67C0084
:1026E00005F038FD04F6AC3504F6142005F032FD93
:1026F000284605F02FFD23780A2B16D8DFE803F0D3
:102700003F3F3F2A2A2A2A2A171706003846314611
:102710000322002300F0B6FF002340462946012291
:1027200000F0B0FF022384F86030BDE8F08100259E
:1027300038467119012205F5CC75002300F0A2FF7F
:10274000B5F5CC6F07F5D077F2D1042384F860306B
:10275000BDE8F081032B2FD0062B2DD0052B14BF05
:1027600004220122042B94BF002301233846314662
:1027700000F088FF012384F86030BDE8F081A3B940
:102780004FF001080025384631460023013501226B
:1027900000F078FFEBB2984507F5D07706F5CC76D8
:1027A000F1D884F86080BDE8F081012B14BF4FF0B0
:1027B00004084FF00208E5E70222D3E72DE9F04FC5
:1027C00000F16403044685B0184604F5017A174603
:1027D0008846019303F05AFA504603F057FA04F57D
:1027E000697003F053FA04F2E46304F24450029374
:1027F00003F04CFA029805F0ADFC04F67C0005F0FD
:10280000A9FC04F6AC3604F6142005F0A3FC30460F
:10281000019D05F09FFC0A2F00F28A81DFE817F086
:102820004F004F004F00790079007900790079005E
:10283000A50006010B00B8F1080F00F0EC810023A1
:1028400001227F2784F874200198029984F8673068
:1028500084F8753084F8763084F8773084F86870BE
:10286000032200F00FFF00237F22314684F8082264
:10287000504684F8073284F8143284F8153284F80C
:10288000163284F817320122022600F0FBFE84F88B
:102890006060002304E04FF4D07505FB0345643508
:1028A000012E94BF0026012685F89E61013394F81D
:1028B0006060DBB29E42EED805B0BDE8F08F002F1D
:1028C00000F0A581012F14BF04260226234600270D
:1028D00004F1740003950BE0AE4283F8672083F89F
:1028E00068C00A5403F5D0738EF8012040F22681A7
:1028F000191B0137B8F1080F4FF000024FF07F0CA1
:1029000001EB000EFDB2E7D183F8652083F866C0C5
:10291000E2E72378032B00F07C81062B00F079811D
:10292000052B14BF04220122B8F1080F00F0928198
:102930004FF0000E042F4FF07F0C4FF0010601986E
:10294000029994BF0023012384F867E084F875E0BE
:1029500084F876E084F877E084F868C084F87460DE
:1029600000F090FE84F8606093E704F110072346BE
:10297000242604F174000022B8F1080F4FF07F0EF6
:102980001CBF83F8656083F8666083F8672083F86E
:1029900068E094F864E006F1020C83F864E094F8CF
:1029A00069E0391B5FFA8CF601442C2E83F869E04C
:1029B00007F5D07701F8102C01F80F2C01F80E2C38
:1029C00001F80D2C03F5D073D5D104F50D77012650
:1029D00094F860304FF4D071B6FBF3F203FB12634E
:1029E000DBB29E4238464FF090020F4404D001FB08
:1029F0000341943107F058FC0136F6B2042EE7D1BA
:102A0000019FDDF808800026384608EB0601012208
:102A100006F5CC76002300F035FEB6F5CC6F07F551
:102A2000D077F1D1042684F8606032E72346002194
:102A300004F174001E1BB8F1080F4FF000024FF0B4
:102A40007F0E06EB000701F5D0716CD0B1F5D06FA9
:102A500083F8672083F868E0325403F5D0737A7006
:102A6000E8D15646012794F860304FF4D071B7FB97
:102A7000F3F203FB1273DBB29F4206F130004FF01A
:102A8000900237D001FB034160318C465CF804AF03
:102A90000B46DCF80490DCF80880DCF80CC0C6F8C3
:102AA00000A0C6F80490C6F80880C6F80CC053F819
:102AB00014AF3431D3F80490D3F80880D3F80CC0A5
:102AC000C6F810A0C6F81490C6F81880C6F81CC046
:102AD000D3F810A0D3F81490D3F81880D3F81CC002
:102AE000C6F820A0C6F82490C6F82880C6F82CC0E6
:102AF00007F0DAFB0137FFB2042F06F5D076B2D12A
:102B0000019FDDF808800026384608EB0601012207
:102B100006F5CC76002300F0B5FDB6F5CC6F07F5D1
:102B2000D077F1D17EE783F8652083F866E08DE702
:102B300094F86060002E3FF4BFAEAAE6012E039D1C
:102B400051D057464FF0010894F860304FF4D071DF
:102B5000B8FBF3F203FB1283DBB2984507F13000B8
:102B60004FF0900237D001FB034160318C465CF896
:102B700004BF0B46DCF804A0DCF80890DCF80CC0BD
:102B8000C7F800B0C7F804A0C7F80890C7F80CC091
:102B900053F814BF3431D3F804A0D3F80890D3F815
:102BA0000CC0C7F810B0C7F814A0C7F81890C7F841
:102BB0001CC0D3F810B0D3F814A0D3F81890D3F8F1
:102BC0001CC0C7F820B0C7F824A0C7F82890C7F8E1
:102BD0002CC007F069FB08F101085FFA88F8B045DE
:102BE00007F5D077B0D1DDF80490DDF80880002734
:102BF0004846414600230137012200F043FDFBB265
:102C0000B34209F5D07908F5CC78F1D30BE701266A
:102C10005CE6022288E600274FF07F08012284F854
:102C200074200198029984F8657084F8677084F8BC
:102C3000757084F8767084F877703B4684F8668007
:102C400084F86880032200F01DFD84F8057284F882
:102C5000068208E600217F2384F8651084F8663038
:102C600066E600BF30B4455C0346AA425A5404D01D
:102C700061B101290ED0022901D030BC70478278A1
:102C80000A4930BC01FB02F2C2627047294630BCDF
:102C9000FFF794BD4278064801F1CC3100FB02F207
:102CA00030BCA1FB0202D2089A627047063A6D005E
:102CB0000DBB020090F8203070B50446DBB9637894
:102CC0000E490F4A01FB03F3A2FB0313DB08A362C7
:102CD0002046FFF7E9FC04F1640600243519284674
:102CE00000F07AFC04F5D074284600F05DFCB4F5E1
:102CF000D06FF3D170BDFFF749F8E0E70DBB0200DC
:102D0000CDCCCCCC10B5002102220446FFF7AAFF9F
:102D100083238622842184F8632584F8833084F811
:102D2000233284F8C3132046FFF7BEFC94F820300A
:102D30008C22627013B12046FFF728F8204600214C
:102D4000FFF7EEF80023044A84F8703DC4F8682DBC
:102D5000C4F86C3D10BD00BFC4A6000810B5044601
:102D600094F8701DD0F86C0D88423DD3D4F8683DBE
:102D70001A78FF2A4FEAA2101BD0FE2A29D012F09F
:102D80003F021BD14FF4D07303FB0040643000F0CE
:102D90005DFBD4F8683D00220133C4F8683DC4F8F7
:102DA0006C2D84F8702D11461A78FF2A4FEAA21074
:102DB000E3D10F4B3422C4F8683D00204FF4D073A8
:102DC00003FB0040183200216423643001F054FEFC
:102DD000DFE70631D4F86C0DC9B20133884284F8BC
:102DE000701DC4F8683DC3D20130C4F86C0D10BD2D
:102DF000C4A60008F8B590F820300446002B00F077
:102E00008A8002796849B0F85C308D5CC27823B161
:102E10009D421CBF012380F85E30012DA4F85C5058
:102E200040F28A80236D23F07F4323F0FF031BB918
:102E30004FF6FF73A4F8583094F85230B3EB550FA7
:102E400094F8513003DBB3EB520F80F28380002BF8
:102E500050D1564A94F85000516A01304E1CF82760
:102E600006F01F06C0B257545662D4F8682D0B28DE
:102E700094BF84F8500084F85030002A6ED0204669
:102E8000FFF76CFF94F85130B4F8541062790131B7
:102E900089B202EB4200B1EBC00FA4F8541014DB6E
:102EA0000021A4F85410207D94F85E1000280CBF77
:102EB00051200920A4F85A0049B10021012084F8CA
:102EC000521084F85E10014606E00029EBD094F819
:102ED00052100131C9B20846202A84BF0122A4F849
:102EE0005420854284F852108FBFE2780021E278A6
:102EF00084F852100133DBB29A4284F851309CBFFF
:102F0000002384F8513094F8563023B1013BDBB2F2
:102F100084F8563003B1F8BD94F82130002BFAD074
:102F20006378272B23D994F82030002BF3D0204648
:102F3000BDE8F840FEF72ABF012A2ED994F8513097
:102F4000511EB3EB610FCCBF00216FF00001A4F85C
:102F500058107CE70021A4F8581078E761782729F9
:102F600094F8501004D91C3124F811208CE7F8BDD6
:102F7000E68EE286A278052902FB06F202EB420207
:102F800094BF0846C1F10C0002EBC20200FB02F242
:102F90001C31520B24F8112076E7282194F8513087
:102FA000A4F8581053E700BFE8AF00081C05002044
:102FB0002DE9F84F0F46C17C07F1010B8B45054603
:102FC00091469A463AD090F86060002E46D0002490
:102FD0004FF0010805E09F4214D00134E4B2A6424C
:102FE00029D94FF4D07303FB045303F1640090F824
:102FF0009F2160331B7990F896110AB90029ECD013
:10300000102BE8D195F813C03946E3454A4653469C
:10301000E3D001F0D5FE214600284A461148534628
:1030200008BF4FF00008013402F0C4FE95F860605C
:10303000E4B2A642D5D84046BDE8F88F0948FF2142
:1030400002F0B8FE95F86060032EBED9A9F17803AE
:10305000DBB2012B02D9B9F17B0FB8D10120BDE859
:10306000F88F00BF60140020F8B50025044680F8F2
:10307000D8502946DC30242207F0F2F984F80251B6
:1030800084F8035184F8045184F8055184F80651FA
:1030900084F8075184F8085184F8095184F80A51DA
:1030A00084F80B5184F80C5184F80D5184F80051C8
:1030B000294604F1D80043180331FF2227295A700A
:1030C000F9D10025294684F8445104F5A47024223E
:1030D00007F0C6F984F86E5184F86F5184F8705186
:1030E00084F8715184F8725184F8735184F87451E2
:1030F00084F8755184F8765184F8775184F87851C2
:1031000084F8795184F86C51294604F5A27043186B
:103110000331FF2227295A70F9D100254FF0070CFF
:103120004FF0060E0320022201230527042629461C
:1031300084F8860184F8872184F88A5184F87A51CA
:1031400084F87B5184F87C5184F87D5184F87E5159
:1031500084F87F5184F8805184F8815184F8895132
:1031600084F80E5184F882C184F883E184F8847174
:1031700084F8856184F8883104F58970242207F089
:103180006FF984F8385184F8395184F83A5184F849
:103190003B5184F83C5184F83D5184F83E5184F809
:1031A0003F5184F8405184F8415184F8425184F8E9
:1031B000435184F83651294604F58770431803318A
:1031C000FF2227295A70F9D104F28B1304F28F11D0
:1031D000FF2203F8012B8B42FAD10023012284F84D
:1031E000D43084F8D53084F8D63084F8963184F819
:1031F000953184F8D73084F89F21F8BD10B490F849
:10320000D43063B194B2002303F1300150F821109F
:103210000133CC8590F8D410DBB29942F4D890F801
:1032200096317BB1A2F5C05292B2B2F5805F09D956
:1032300090F8993100EB430393F83A2062F07F0253
:1032400083F83A2040795DF8044B003018BF012024
:10325000704700BFF0B4017CB1B990F8D4206AB1D6
:103260005B029BB20A4602F1300150F82110013294
:10327000CB8690F8D410D2B29142F4D84079F0BC09
:10328000003018BF01207047012917D0082915D038
:1032900090F8D460002EF1D090F88B1191422DD08F
:1032A0000446002103E094F88B51954231D001315E
:1032B000C9B2B14204F10104F5D1DFE790F88A61A7
:1032C000002EDBD090F87A1101F07F01914223D0DB
:1032D00000F5BD773C46002104E02D7805F07F0520
:1032E00095420ED00131251AC9B23D446FF4BC7C21
:1032F000B142654404F10104EFD1BFE790F88A615F
:103300000021B142BAD2303150F821205B02D3867D
:10331000B4E790F88A61F4E70021F2E790F8D4303E
:103320006BB1520292B2002303F1300150F8211028
:103330000133CA8690F8D410DBB29942F4D84079B0
:10334000003018BF0120704738B590F833200023B3
:1033500081F00101012A044680F8951180F890312E
:1033600080F8983180F8D73080F8D63037D00122F5
:1033700080F8923180F8933180F89421002584F808
:103380009151A4F89C5184F80E51294604F5897096
:10339000242207F065F804F5877484F82A5084F82D
:1033A0002B5084F82C5084F82D5084F82E5084F83B
:1033B0002F5084F8305084F8315084F8325084F81B
:1033C000335084F8345084F8355084F82850294616
:1033D00063180331FF2227295A70F9D138BD90F8BC
:1033E000D81090F832200139013AFF2380F8921169
:1033F00080F8932180F89431C0E700BF90F89631AF
:1034000010B4BBB990F83810012280F8993180F8D7
:10341000962191B9002380F8973100F1B90400F1A9
:1034200039038021002219705A7002339C42F8D16E
:1034300080F838205DF8044B704790F89531002BE8
:10344000E8D080F897215DF8044B704738B500F557
:10345000BD72044600231178013301F07F01082B6F
:1034600002F8011BF7D10025294684F8445104F5E0
:10347000A470242206F0F4FF84F86E5184F86F5192
:1034800084F8705184F8715184F8725184F8735142
:1034900084F8745184F8755184F8765184F8775122
:1034A00084F8785184F8795184F86C51294604F5F0
:1034B000A27043180331FF2227295A70F9D1002541
:1034C000294684F8D85004F1DC00242206F0C8FF15
:1034D00084F8025184F8035184F8045184F80551AA
:1034E00084F8065184F8075184F8085184F809518A
:1034F00084F80A5184F80B5184F80C5184F80D516A
:1035000084F80051294604F1D80043180331FF2202
:1035100027295A70F9D194F8D43000255BB105F110
:10352000300354F8230004F015FE013594F8D4302C
:10353000EDB2AB42F3D804F28B1304F28F11FF22E9
:1035400003F8012B8B42FAD1002384F8D73084F89A
:10355000D63038BDF8B5054695F8D4000F4608B307
:1035600095F88B31BB420ED0012303E094F88A21F9
:10357000BA4209D0DAB21E46824203F1010305EBDA
:103580000304F3D3F8BD002606F1300355F82300F9
:1035900004F0E0FD95F8D4002E44FF2386F88B312B
:1035A0000028DDD1F8BD00BF38B50546FFF74EFF56
:1035B00095F8D430002485F8D6405BB104F130038F
:1035C00055F8230004F0A4FC013495F8D430E4B29B
:1035D000A342F3D838BD00BF837F10B4072B84BF4C
:1035E0000723837790F82030072B84BF072380F8C8
:1035F000203090F8D430002B40D0002200EB820322
:10360000D3F8C010047D013281F84340D3F8C010D4
:10361000847DD2B281F84440D3F8C010447D81F853
:103620004540D3F8C010C47E81F84640047FD3F8EB
:10363000C010003418BF012481F84840447F81F84D
:103640004740D3F8C010847F81F84940D3F8C010B8
:1036500090F8204081F84A40D3F8C010C47F81F828
:10366000744090F9174090F91810D3F8C03001EB6E
:10367000C411196190F8D4309342BFD85DF8044B5F
:10368000704700BF2DE9F041164604461D460F461F
:10369000FFF7DCFE042E34BF3246042284F8D42027
:1036A00084F8D5508AB1013AD2B207F5CC734FF401
:1036B000CC7000FB023039462246C2F8C01001F53A
:1036C000CC71814202F10402F7D1002D94F8D4802C
:1036D00014BF0223012308FB03F806270023052655
:1036E000042503204FF0070C0221012284F88601F3
:1036F00084F88A8184F87A3184F87B3184F87C31CB
:1037000084F87D3184F87E3184F87F3184F880310B
:1037100084F8813184F8893184F882C184F8837116
:1037200084F8846184F8855184F8871184F88821AD
:103730002046BDE8F041FFF74FBF00BF435C425455
:103740009A4225D0332923D8DFE801F0232323230D
:103750002322222222222222222222222522222245
:103760002727272727222227272727272722222202
:103770002222222222222222222222222222221A31
:1037800090F83330012B14BF0123FF2380F89431CC
:103790007047FFF75BBEFFF707BFFFF71DBF00BF16
:1037A0002DE9F041857E0446012D82B04FEAC1101B
:1037B0004AD0212D30D0012D42D994F91930404AF8
:1037C000C91A09B2F03182FB0162CF173D4EC7EB37
:1037D000620202EB4202023DA1EB820156F8255043
:1037E000C9B235F81120104480B294F82110364A3D
:1037F0003C3352F83140DB0100B2C01A04FB00F048
:1038000002EBC102526890FBF2F0034483F30E0016
:1038100000B202B0BDE8F081294BF03183FB0123F7
:10382000CA17C2EB630303EB4303A1EB8301D4F894
:10383000D020C9B2525694F91930104480B2D4E75E
:1038400080B294F91930D0E7204ECFB2B379BB42A1
:103850001ED1B0881D4B03F140055A7AFF2A03D0D0
:1038600002EB420292105A720433AB42F5D1316836
:10387000FF258A1C013106EB820306F822700F290E
:10388000124A58805D708ABF002311601360D8E728
:103890004FEAC7180423009341466FF01F0220230C
:1038A0003046B771FDF742FC0095821F831D4146EB
:1038B0003046FDF73BFC404480B2B080CAE700BF11
:1038C000ABAAAA2A1400002000B00008C4040020FB
:1038D0002DE9F04190F8D43082B004460F4690F8BC
:1038E0004481002B41D00025002F6BD0984569D230
:1038F000B8F1000F6AD008FB05F292FBF3F3DBB2DC
:10390000FF2B63D094F84421617C93426BD203294E
:1039100069D8DFE801F02D050240013AD31ADBB285
:10392000234493F86D6106EB4606264406F24516DD
:1039300031782046FFF734FF05F13003014654F893
:103940002300727890F814E0A37C8EF0010ECDF87D
:1039500000E004F0B3FB3278631983F88B21013562
:1039600094F8D430EDB2AB42BED802B0BDE8F081DD
:1039700094F86C214BB10021013102EB4202C8B234
:103980002244834292F84721F6D802EB4202A6185D
:1039900006F24516CCE7013AD31A13F0FF0394F868
:1039A0006C21F2D00021013102EB4202C8B2224464
:1039B000834292F84721F6D802EB4202A61806F29B
:1039C0004516B5E794F84431AB420AD805F1300307
:1039D00054F8230004F0BEFB6319FF2283F88B2107
:1039E000BDE72B468CE704F24516A1E72DE9F04F21
:1039F000437987B0022B04460D4625D0217C91B136
:103A00004B1FDBB2022B40F2C2810139072900F2C1
:103A10007081DFE811F0BF00F4000101ED006E01DC
:103A20006E016E011201607C94F844810490B8F13B
:103A3000000F2ED00498032800F2F283DFE810F084
:103A400061035E034E03340390F8D530002BD5D1CB
:103A50000378102B18BF43F09006C74B08BF902681
:103A6000D3F88410481C00F07F00C3F88400D3F81A
:103A700084005E54411C01F07F01C3F88410D3F828
:103A800084101D54481C00F07F005A54C3F8840071
:103A9000B4E704F2451394F86CB1059304F5A270F1
:103AA000BBF1000F1BD00BEB4B06264496F845717B
:103AB0005B46AF4200F04C82D94605E097F845C11D
:103AC000AC4500F0E981994603EB4303234493F8A6
:103AD000476106EB460733462744002EEED1B8F186
:103AE0000C0F00F0508208F1010959465FFA89F97C
:103AF0004746012303EB430C84449CF801801E4697
:103B0000B8F1FF0F5FFA83FC03F1010303D00D2B23
:103B1000F0D10126B4464FEA460808EB06032344D9
:103B200083F8471183F8455183F8462184F86CC126
:103B3000EFB194F86D3103EB4303234493F845311F
:103B4000AB4298BF01230AD9D7E192F8292002EBB2
:103B50004202224492F845219542C0F0D081D9B268
:103B6000B94200EB03029A4603F10103EDD3E319D6
:103B700083F86DC184F84491B9F1000F00F004811D
:103B8000049A032A00F20081DFE812F0B7008702EE
:103B90007F026D0294F88A01002840F04983FF26D5
:103BA00094F8D4309E42C0F0B8812378102B18BF0F
:103BB00043F09004704B08BF9024D3F88410481C45
:103BC00000F07F00C3F88400D3F884005C54411CEB
:103BD00001F07F01C3F88410D3F884101D54481CF1
:103BE00000F07F005A54C3F8840007B0BDE8F08F9E
:103BF00094F8D43003FB02F6C6F3C716D2E794F864
:103C00008F6194F8D4309E4239BF711CC9B2012132
:103C1000002684F88F11C5E75848594E0368594962
:103C200006FB03F694F8D43031440E0EB6FBF3F7DE
:103C300003FB17660160F6B2B4E794F88A01002826
:103C4000ADD094F87A3103F07F03AB4200F0B58336
:103C5000012304F5BD7105E0CF5C013307F07F0758
:103C6000AF4228D0DEB2B0429C46F5D804F5C17C04
:103C70000B46FF261F1B0F44A7F5B9773F7801338A
:103C8000B84207D904EB070898F97A8116EA2806A2
:103C900038BF3E466345EDD1FF2E08BF072309D14B
:103CA000E71897F88271013BDBB2B84288BF3E4605
:103CB000FF2BF5D1B446A44465F07F038CF87A312C
:103CC000072704F5B97C0B46181B08446FF4B57838
:103CD00040440078013B864206D04FFA87F8A04462
:103CE000013F88F88201FFB26345EDD184F882611B
:103CF00056E794F8D430002654E74644064401368B
:103D00000598317803788B423FF46FAF94F8D43044
:103D1000B9F1010F94BF4FF000094FF00109002BDA
:103D20003FF463AF0025B0460FE0A37CF7B9012054
:103D30000090304604F0C2F9013594F8D430EDB269
:103D4000AB427FF652AF98F8001005F130032046E1
:103D500054F82360FFF724FDE77C0146012F98F813
:103D60000120E2D1B9F1000F03D14B4689F00100E7
:103D7000DEE7A37CFAE700BF48050020AC02002084
:103D80000D6619005FF36E3C04F24516B8E794F82F
:103D90006CA1BAF1000F1BD00AEB4A00204490F846
:103DA00045615346AE4200F0B681D44605E090F836
:103DB0004571AF4200F021819C4603EB430323444D
:103DC00093F8476106EB460033462044002EEED1BF
:103DD00094F8446104F5A2700C2E00F0B98106F14C
:103DE00001085FFA88F8012707EB470C84449CF828
:103DF00001903B46B9F1FF0F5FFA87FC07F101071D
:103E000003D00D2FF0D101239C4603EB4303234441
:103E100083F847A183F8455183F8462184F86CC1A3
:103E2000E6B194F86D3103EB4303234493F8453135
:103E3000AB4298BF012309D91EE092F8292002EB7A
:103E40004202224492F84521954218D3DFB2BE4285
:103E500000EB0302994603F10103EED8264486F8ED
:103E60006DC10539204618BF012184F8448107B08F
:103E7000BDE8F04FFFF72CBD4FF000094F46A319E6
:103E8000013E93F86C21F6B2BE4283F86D21F6D85C
:103E9000A14489F86DC1E4E709EB490997F8477136
:103EA000A14489F84771B8F1000F00F0758294F8C9
:103EB0006D71B74218BF012704D14FE09AF828A0CE
:103EC000B2454ED05FFA87FCB946E04507F10107DD
:103ED00000EB070AF2D808F1FF3603EB4303234453
:103EE0005FFA86F8FF27002683F8457183F847615B
:103EF00083F8466184F84481F1E500218A463B4617
:103F0000E218013B92F86C51DBB28B4282F86D51A2
:103F1000F6D8A2448AF86DC12CE6204629460392C1
:103F2000FFF718FB06F130032946204654F823809A
:103F3000FFF736FC0127A37C0146039A4046009711
:103F400004F0BCF8344484F88B5107B0BDE8F08F1E
:103F500096F847B11E4684F86CB1A4E74FF000090B
:103F6000CC4608F1FF364E45B7DD4F4627440CF1ED
:103F7000010C97F86E815FFA8CFCB44587F86D816F
:103F80006746F3DBA9E70646002301279146C4EB09
:103F9000060C8444ACF59F7898F800200333033670
:103FA000ACF5A07C0AB99CF80070242BEFD14A46EE
:103FB000BBF1000F00F0F8810BEB4B01214491F8AD
:103FC00045615B46BE4200F08781DC4605E091F822
:103FD0004581B84500F0F4809C4603EB430323443D
:103FE00093F8476106EB460133462144002EEED19B
:103FF00059460C274FF00D097BE50CEB4C0C90F863
:104000004701A4448CF8470194F844B1BBF1000F78
:1040100000F0C58194F86D01B04200F08280012764
:1040200004F5A27003E099F82890B1457ED05FFABC
:1040300087FCB846E34507F1010700EB0709F2D812
:104040000BF1FF3B03EB4303234400275FFA8BF69E
:104050004FF0FF0C83F845C183F8477183F8467130
:1040600084F84461B8E600235FB101330CEB4C0CDB
:10407000DAB2A444BA429CF847C1F6D366464FEA86
:104080004C0846443044461C3AE6274497F86D31C4
:1040900003EB43031844461C32E694F86D3103EBFE
:1040A00043031844461C2BE608F1FF3694F86CB124
:1040B00016F0FF065B4609D00020013003EB4303F6
:1040C000C7B22344BE4293F84731F6D803EB43030B
:1040D00004F5A270034401330593E1E408F1FF36CF
:1040E000F3B2234493F86D3104F5A27003EB43035C
:1040F00003440133059394F86CB1D1E494F86D3125
:10410000F2E794F86CB104F5A2700BEB4B03034497
:1041100001330593C4E490F847A11E4684F86CA1CE
:1041200072E74FF00008C44604F5A2700BF1FF3BA4
:10413000C34587DD464626440CF1010C96F86E71A6
:104140005FFA8CFCDC4586F86D716646F3DB79E737
:10415000064600234FF001089146371B0744A7F598
:104160009F7C9CF8002003330336A7F5A0770AB99B
:1041700097F80080242BF0D14A46BAF1000F1BD0EB
:104180000AEB4A06264496F845715346474500F027
:10419000EA80D44605E097F84591C14500F0B58026
:1041A0009C4603EB4303234493F8476106EB460721
:1041B00033462744002EEED10C264FF00D0812E6B0
:1041C00091F847710CEB4C0C04EB0C0181F8477132
:1041D000594694F86D71B74218BF012700F0E98085
:1041E00000EB070898F82990BC46B1455FFA87F8BC
:1041F00007F1010776D00C2FF2D103EB43032344E0
:1042000000270B264FF0FF0C83F8477183F84671A7
:1042100083F845C1374684F844614FF00C0968E4DF
:1042200004F2451094F86CB1059004F5A27037E4DF
:1042300094F87A3103F07F03AB4200F0C48001238D
:1042400004F5BD7105E0CF5C013307F07F07BD4287
:1042500026D0DEB2B0429C46F5D804F5C17C0B46B0
:10426000FF261F1B0F44A7F5B9773F780133B842EB
:1042700007D904EB070898F97A8116EA280638BFAF
:104280003E466345EDD1FF2E08BF002307D1CF186E
:104290003F7A0133B84288BF3E46082BF7D1B44677
:1042A000A44465F07F038CF87A31072704F5B97CC4
:1042B0000B46181B08446FF4B57948440078013B5D
:1042C000864206D04FFA87F8A044013F88F8820161
:1042D000FFB26345EDD109E591F847115E4684F8D8
:1042E0006C1176E7BCF10B0F18BF664685D02644EB
:1042F00008F1010896F86E715FFA88F8B8F10A0FB4
:1043000086F86D714646F2DD77E797F847810CEB4A
:104310004C0C04EB0C0787F8478194F86D71B74299
:1043200018BF012755D000EB070898F82990BC4624
:10433000B1455FFA87F807F101071AD00C2FF2D1C7
:1043400003EB4303234400260B274FF0FF0C83F8B5
:10435000476183F8466183F845C13E4684F844715D
:104360004FF00C083FE596F847A11E4684F86CA173
:10437000D3E7BCF10B0F18BF6646E1D0264408F125
:10438000010896F86E715FFA88F8B8F10A0F86F89E
:104390006D714646F2DDD3E74FF0FF369DE504F53B
:1043A000A2704FF0FF3B4DE60C274FF00D09FFF7D1
:1043B000A0BB4FF00008464699E74FF0000C664658
:1043C00004F5BD7177E44FF0000C664604F5BD714D
:1043D00066E74FF000084646D0E700BF2DE9F043FE
:1043E000437983B0022B044600F09280A37E012B18
:1043F0007DD0237C002B6CD05A1FD2B2022A40F20F
:10440000AE80012B3AD0082B38D094F8D40088B174
:1044100094F88B318B4200F061822346002503E043
:1044200093F88B218A4245D00135EDB2854203F1E4
:104430000103F5D123780024102B18BF43F0800529
:10444000C14B08BF8025D3F88420501C00F07F00AA
:10445000C3F88400D3F884009D54421C02F07F020C
:10446000C3F88420D3F884201954511C01F07F0133
:104470009C54C3F8841003B0BDE8F08394F88A61BB
:10448000AEB194F87A0100F07F00884200F0BC8061
:10449000012306E0D05C013300F07F00884200F089
:1044A000B780DDB2B54204F5BD721F46F2D3FF25D9
:1044B00094F8D4008542BDD205F1300354F82300AE
:1044C00003F048FE2C44FF2384F88B3103B0BDE891
:1044D000F08394F84451667C002D6BD0032E00F2DB
:1044E000F881DFE816F0DB01D101C201AA01974B88
:1044F00003F1400003E0043383423FF47AAF1A7AB9
:104500008A42F8D15A7AFF2A04BFC0225A72F2E7CF
:1045100090F8D530002B7FF469AF03780025102B7D
:1045200018BF43F08006884B08BF8026D3F884204C
:10453000501C00F07F00C3F88400D3F884009E5420
:10454000421C02F07F02C3F88420D3F8842019545F
:10455000501C00F07F009D54C3F8840046E794F897
:104560006C61CEB106EB4602224492F84501334617
:10457000884206D1FEE090F845518D4200F0A780B8
:104580001E4603EB4303234493F8472102EB42000A
:1045900013462044002AEED12046FEF7DBFF237CA1
:1045A000062B7FF468AF2046012103B0BDE8F0433D
:1045B000FFF78EB994F86C8104F24517B8F1000F3B
:1045C00018D008EB4802224492F84501434688423D
:1045D00005D1B3E090F845C18C4548D0984603EB2F
:1045E0004303234493F8472102EB4200134620443F
:1045F000002AEFD13DB3032E00F26881DFE816F008
:1046000056015E01E700D10000273D4604F5BD726A
:10461000274487F87A0104F5B97C13460726181B4E
:1046200010446FF4B57738440078013B854205D0DB
:1046300077B22744013E87F88201F6B26345EED196
:1046400084F8825134E794F8D430002B3FF413AF50
:1046500005F1300354F8230003F07CFD013594F894
:10466000D430EDB2AB42F3D803B0BDE8F08308EB31
:10467000480890F84711A04488F84711002D00F031
:104680002F8194F86D11914218BF012104D15FE090
:1046900098F86C8190455ED0C8B28C46854201F195
:1046A000010104EB0108F3D805F1FF3903EB4303E3
:1046B00023445FFA89F90022FF2183F8451183F82A
:1046C000472183F846214D4684F8449192E706EB52
:1046D000460690F84701264486F8470194F844E1DD
:1046E000BEF1000F00F0FF8094F86D01904218BFFA
:1046F000012004D144E097F86C71974242D0C5B2D2
:104700000646AE4500F1010004EB0007F3D80EF1B8
:10471000FF3E03EB430323440022FF2083F84501BF
:1047200083F8472183F84621204684F844E1FEF7C8
:1047300011FF237C062B7FF49EAE34E792F84711DD
:10474000424684F86C1199E748050020C404002013
:104750004FF0000C604605F1FF39CC45A6DAA444C1
:1047600001309CF86E21C0B248458CF86D2184461A
:10477000F5DB9BE792F84701324684F86C01ADE720
:10478000002635460EF1FF3EB645C2DD2644013512
:1047900096F86E21EDB2754586F86D212E46F5DB53
:1047A000B7E7681E10F0FF0094F86C3109D00022C2
:1047B000013203EB4303D1B22344814293F84731E2
:1047C000F6D303EB4303E61806F2451609E06B1E29
:1047D000DBB2234493F86D3103EB4303E61806F292
:1047E00045163B7831788B423FF445AE94F8D4308F
:1047F000002B3FF440AE002500E0317805F1300396
:10480000204654F82370FEF7CBFF94F813E0A37C06
:10481000DEF1010E38BF4FF0000E014672783846C7
:10482000CDF800E003F04AFC013594F8D430EDB245
:10483000AB42E2D803B0BDE8F08305F1FF3994F84C
:104840006C8119F0FF09434609D00022013203EBC5
:104850004303D0B22344814593F84731F6D803EBA4
:104860004303E71807F24517A8E605F1FF395FFA99
:1048700089F3234493F86D3194F86C8103EB43037F
:10488000E71807F2451799E694F86D3194F86C81B2
:1048900003EB4303E71807F245178FE694F86C81A2
:1048A00008EB4807274407F2451787E694F86C3170
:1048B00003EB4303E61806F2451692E794F86D31D0
:1048C00003EB4303E61806F245168AE704F24516A1
:1048D00087E794F86C8104F245176FE60025E9E557
:1048E0004FF0FF39E2E64FF0FF3E12E790F8D63086
:1048F0002DE9F0410646EBB10346002403E0242CE9
:1049000003F1030310D093F8DC5003349542F6D141
:1049100093F8DD1061F07F000029F0D0242C83F89B
:10492000DD0003F10303EED17379012B2DD00020BC
:10493000BDE8F08190F80071C7B107EB4700304443
:1049400090F8D9403B46944205D160E094F8D950A4
:10495000954229D01F4603EB4303334493F8DB0011
:1049600000EB4004034634440028EFD196F8383079
:104970008BB196F8953173B10B06D5D511463046FB
:10498000FFF72CFD7379012BD1D196F8D50080F07B
:104990000100BDE8F08196F83230002BECD11146D1
:1049A0003046FFF71BFDEDE794F8DB5007EB4707B8
:1049B000F41984F8DB5096F8D880B8F1000F3DD098
:1049C00096F80141844218BF012404D125E09CF8E7
:1049D00000C1844523D0E5B22746A84504F101046F
:1049E00006EB040CF3D808F1FF3803EB4303334420
:1049F0000020FF2483F8D94083F8DB0083F8DA0035
:104A000096F8383086F8D880002BC4D0B1E790F8FB
:104A1000DB40384686F80041CDE700273D4608F1E7
:104A2000FF38B845E1DD3744013597F80201EDB2B2
:104A3000A84587F801012F46F5DCD6E74FF0FF388F
:104A4000D3E700BF70B50646044600F1240502E036
:104A50000334AC420FD094F9DD30002BF8DA317812
:104A600094F8DC20102908BF002130460334FFF7FA
:104A70003DFFAC42EFD170BD2DE9F84F90F8D75013
:104A80000446174699464FEAD118002D40F03A8166
:104A900094F80011D9B101EB4103234493F8D920D4
:104AA0000846BA4200F015810E4605E093F8D92079
:104AB000BA4200F0A880064600EB4000204490F87F
:104AC000DB5005EB450328462344002DEED1234659
:104AD00013F8D85F8A460C2D00F0CB8005F1010C4D
:104AE0005FFA8CFC012202EB42011944497810461E
:104AF000FF29D6B202F1010203D00D2AF3D1012021
:104B0000064600EB4000204480F8DBA080F8D97016
:104B100080F8DA9084F80061E5B194F8012102EBA5
:104B20004202224492F8D920BA4298BF012009D902
:104B30002DE092F8292002EB4202224492F8D9207B
:104B4000974226D3C1B2A94203EB0002824600F18C
:104B50000100EED3254485F8016194F8383084F8DB
:104B6000D8C013B194F8952102BB94F83220EAB969
:104B7000204639464A46FEF739FF94F89631FBB98C
:104B80006379012B00F0CA800020BDE8F88F002176
:104B90008A466319013D93F80021EDB28D4283F8F6
:104BA0000121F6D8A2448AF80161D6E7B8F1000FD6
:104BB00000F0F78039464A462046FEF717FFDFE748
:104BC000B8F1000FDCD194F8383094F8992104EB57
:104BD000420191F83A0081F8397049EA000981F8F8
:104BE0003A90013294F89711D2B284F8992121B900
:104BF0009A4201D984F8382040239A4224BF0023E6
:104C000084F89931BCE706EB460693F8DB3026447E
:104C100086F8DB308A4694F8D8B0BBF1000F00F07C
:104C2000C68094F80131AB4259D0012604F1D80373
:104C300003E09CF828C0AC4555D0F2B231465A4545
:104C400006F1010603EB060CF3D30BF1FF3B5FFA11
:104C50008BF500EB400020440022FF210C2D80F852
:104C6000D91080F8DB2080F8DA2084F8D8507FF45F
:104C700035AF184600224FF0010C051B1D4415F8F6
:104C8000D26C033203300EB915F8D4CC242AF4D1F7
:104C9000BAF1000F19D00AEB4A01214491F8D9006A
:104CA000524660456AD0554604E091F8D9606645A1
:104CB0003AD0154602EB4202224492F8DB0000EBA8
:104CC0004001024621440028EFD10C254FF00D0C85
:104CD00008E793F8DBA00D4684F800A19BE70021CC
:104CE0000A4604F1D8030BF1FF3B8B45AFDD2144AD
:104CF000013291F80261D2B25A4581F80161114640
:104D0000F5DBA4E790F8D650002380F8D630FFF703
:104D100099FE84F8D75084F8D650B9E694F8D500B7
:104D200080F00100BDE8F88F91F8DB6005EB4505E8
:104D3000611981F8DB6094F80111814218BF0121EB
:104D40003AD05E1896F829C00D468445CEB201F1DE
:104D5000010119D00C29F4D102EB42022244FF25B3
:104D600000200B2182F8D95082F8DB0082F8DA00AB
:104D70000D4684F8D8104FF00C0CB3E691F8DBA088
:104D8000104684F800A1D6E70B2DE5D02544013666
:104D900095F80211F6B20A2E85F801113546F5DDB7
:104DA000DAE794F89621002A7FF40FAFE8E64FF097
:104DB000FF3B04F1D8034AE700263546E6E700BF8B
:104DC000F8B5551E164604461F467E2D46D8DFE828
:104DD00005F05757455745454545454545454545E2
:104DE0004545454545454545454545454545454573
:104DF0004545454545454545454545454545454563
:104E00004545454545454545454545454545454552
:104E10004540454545454545454545454545454547
:104E20004545454545454545454545454545454532
:104E30004545454545454545454545454545454522
:104E4000456B854545454545454A92454A4D4F5236
:104E50008D003F2F63D9012380F8D6306079003070
:104E600018BF0120F8BDFEF7F1FAF7E70170F5E78A
:104E700010230370F2E700230374FEF795FBEDE7C0
:104E800090F8D430002BE9D0002505F1300354F818
:104E9000230031463A4603F061F9013594F8D430E5
:104EA000EDB2AB42F1D8D9E790F89631002BD5D0CE
:104EB00090F89931812104EB430282F839100133D3
:104EC00094F89721DBB284F8993172B394F83820C2
:104ED0009342C3D3002384F89931BFE790F8963109
:104EE000002BBBD090F899318021E4E701230374B3
:104EF000FEF75AFBB2E790F8D430002580F8D65080
:104F0000002BABD005F1300354F8230003F000F878
:104F1000013594F8D430EDB2AB42F3D89EE70023CC
:104F200080F8D630FFF78EFD98E794F838209A4243
:104F300001D284F838304022CAE700BFF8B590F8B3
:104F40000EC10546BCF1000F7BD000F5877695F8C1
:104F500037E195F836710EEB4E0333445978C7B1FB
:104F600007EB47022A4492F80F013B46884205D1DD
:104F70004BE090F80F418C4214D01F4603EB4303E3
:104F80002B4493F8112102EB420013462844002AD7
:104F9000EFD12846FFF722FA95F80EC1BCF1000FB9
:104FA000D5D1F8BD07EB470790F811012F4487F8DA
:104FB0001101BCF1000F30D0964518BF012404D177
:104FC0002EE09EF828E096452CD0E0B227466045BA
:104FD00004F1010406EB040EF3D30CF1FF3C03EBE8
:104FE00043032B440022FF2083F80F0183F8112193
:104FF00083F81021284685F80EC1FFF7EFF995F8E0
:105000000EC1BCF1000FA2D1CBE792F811013A46D4
:1050100085F83601BCF1000FCED14FF0FF3CDEE742
:10502000002738460CF1FF3CBC45D8DD2F44013049
:1050300097F83821C0B2844587F837210746F5DC58
:10504000CDE7F8BD2DE9F04790F89831044603F11B
:105050001C0600EB4606717801360F0600F18880C9
:1050600090F8D8300D46002B40F09A8072781706E1
:1050700000F1D0802046FFF761FF7278EDB229463B
:1050800002F07F022046FEF7B1FC777894F8369163
:1050900007F07F07B9F1000F1BD009EB490222444A
:1050A00092F80F114B46A94200F041814E4605E0AF
:1050B00091F80F01A84200F0D2801E4603EB430393
:1050C000234493F8112102EB420113462144002AA4
:1050D000EED194F80E2104F587760C2A00F0F480C6
:1050E00002F101085FFA88F8012000EB4001314429
:1050F00049780346FF295FFA80FC00F1010003D0E4
:105100000D28F2D101239C4603EB4303234483F88B
:10511000119183F80F5183F8107184F836C1E2B110
:1051200094F8373103EB4303234493F80F31AB4238
:1051300098BF012309D978E091F8291001EB4101CA
:10514000214491F80F11A94271D8D8B2904206EBD0
:1051500003011F4603F10103EED3224482F837C155
:1051600094F8312094F8983184F80E81A4F89A21AB
:1051700094F838200133DBB29A4284F898319CBF0E
:10518000002384F898311C3304EB43035A7801332D
:10519000812A59D093F90130002B55DBBDE8F08707
:1051A00090F89F31002B3FF461AF90F89E319BB98E
:1051B00090F8383083B190F8392010060DD5581E7C
:1051C000C0B204EB4000234604E093F83B200233D6
:1051D000150602D58342F8D13C2294F8003103EB46
:1051E0004303234493F8D9309A1A11448DB22BB259
:1051F0007F2B04DD0C3DADB22BB27F2BFADC002BF4
:10520000BFF634AF0C35ADB22B04FBD47278170661
:105210007FF530AFEDB2204602F07F022946FEF75F
:10522000E5FB2046FFF78AFE2FE700273846A31844
:10523000013A93F83611D2B2824283F83711F6D888
:10524000274487F837C18BE76B4994F83020B4F8CE
:105250009A318A5C1344A4F89A31BDE8F08706EBD2
:10526000460691F81111264486F8111194F80EA102
:10527000BAF1000F00F0B78094F8371191425CD07A
:10528000012004F5877603E098F82880904559D0EE
:10529000C1B28446514500F1010006EB0008F3D38A
:1052A0000AF1FF3A5FFA8AF203EB43032344002139
:1052B000FF200C2A83F80F0183F8111183F81011D5
:1052C00084F80E217FF40CAF324600234FF0010C1E
:1052D000111B3144A1F58470007803330332A1F52A
:1052E000857108B991F800C0242BF1D1B9F1000FF4
:1052F00019D009EB4902224492F80F114B4661453F
:105300005BD0484604E091F80F81E04529D018466B
:1053100003EB4303234493F8112102EB42011346AC
:105320002144002AEFD14FF00D080C22DCE692F860
:1053300011911A4684F8369198E74FF0000C6146B7
:1053400004F587760AF1FF3AE245ABDDA44401316A
:105350009CF83801C9B28A458CF837018C46F5DCD7
:10536000A0E791F811C100EB4000211881F811C1AC
:1053700094F83711914218BF012139D006EB010C86
:105380009CF82980084690455FFA81FC01F10101F3
:1053900019D00C29F2D103EB4303234400220B2143
:1053A000FF2083F8112183F8102183F80F010A46AA
:1053B00084F80E114FF00C0896E692F811911A46F7
:1053C00084F83691D4E70B28E5D020440CF1010C89
:1053D00090F838215FFA8CFCBCF10A0F80F8372175
:1053E0006046F2DDD7E74FF0FF3A04F5877659E7DC
:1053F0004FF0000C6046E8E7F4AF00082DE9F04FED
:10540000CB4B90F8341090F8352033F8111085B05C
:10541000044690F89131002A40F0D48001229A404D
:1054200010200090114294F8D89000F0C080B9F19B
:10543000000F00F0BC80B9F1010F94F8321000F0B9
:10544000E88094F83300032800F0EC8094F892216F
:1054500094F8933152B24A4580F21C81002AC0F27E
:1054600019815BB28B4280F2F580002BC0F2F28092
:105470002046FFF763FD94F83330052B00F062817E
:10548000042B00F0EB8294F89231234493F801311D
:1054900003EB43032344D93394F89321197802EBA7
:1054A000420201EB8201C9B25A78080602F07F027B
:1054B00003D50C39C9B20B06FBD494F83681B8F188
:1054C000000F1BD008EB4800204490F80F514346D2
:1054D0008D4200F09882474605E095F80F618E42B4
:1054E00000F0F1801F4603EB4303234493F81101BE
:1054F00000EB4005034625440028EED194F80E0148
:1055000004F587750C2800F0C08200F1010C5FFAE9
:105510008CFC012606EB46072F447F783346FF2F8D
:105520005FFA86FE06F1010603D00D2EF2D10123AB
:105530009E4603EB4303234483F8118183F80F1144
:1055400083F8102184F836E1E0B194F8373103EBA9
:105550004303234493F80F318B4298BF012309D9A9
:1055600047E096F8296006EB4606264496F80F6158
:10557000B14241D3DFB2874205EB0306984603F1FF
:105580000103EED3204480F837E184F80EC12046B1
:10559000FEF72CFA94F8923194F8941194F8312093
:1055A000194494F8913184F89211A4F89A21009A40
:1055B0000133DBB29A4298BF002384F8913105B0E1
:1055C000BDE8F08F90F83710009200985A18B2FB9F
:1055D000F0F100FB112200F2FF700121400194F86C
:1055E000365001FA02F280B25249284451F8201094
:1055F00018E74FF0000847462318013893F8365152
:10560000C0B2874283F83751F6D3A04488F837E117
:10561000BBE701297FF415AF002384F8923184F8A9
:10562000933125E7444A454D1068454B05FB00F092
:105630000344180CC5B2001295FBF1F790FBF9F684
:1056400001FB175109FB1600136084F8931184F8CD
:1056500092010DE794F894315AB2002ADABF01F1B1
:10566000FF32D2B20022022884F893217FF400AFE7
:105670005B42DBB25AB2002A84F894311BDD01226E
:1056800084F89221002352B24A4584F89331DBB268
:10569000FFF6E4AE94F89421134452B2002AD8BF26
:1056A00009F1FF32DBB2D4BFD2B2002284F89331C9
:1056B00084F89221D5E6A9F10202D2B24B1E84F8F9
:1056C0009221DBB2DFE795F8116107EB4707E51997
:1056D00085F8116194F80E91B9F1000F00F0528233
:1056E00094F83751854200F09481012604F58775BE
:1056F00004E09CF828C0844500F09081F7B2B646DB
:105700004F4506F1010605EB060CF2D309F1FF390E
:1057100003EB4303234400265FFA89F0FF2783F855
:105720000F7183F8116183F8106184F80E01E9E6C6
:105730004CCC0008A8D80008AC0200200D66190067
:105740005FF36E3C04F1D8034FF00008029304F5B8
:105750008775CDF80C9094F8D81094F80091013921
:10576000C8EB010111F0FF0109D00023013309EB5F
:105770004909DAB2A144914299F8DB90F6D8029B2C
:1057800009EB4909994409F1010A9AF8013094F8A2
:1057900036B103F07F03019399F80160BBF1000F6C
:1057A0001AD00BEB4B02224492F80F115B46B14228
:1057B00000F0E0805F4604E091F80F01B04274D041
:1057C0001F4603EB4303234493F8112102EB4201EC
:1057D00013462144002AEFD194F80E210C2A00F040
:1057E000988002F1010E5FFA8EFE012101EB41006B
:1057F000284440780B46FF28CFB201F1010103D0C5
:105800000D29F3D101231F4603EB430301982344E1
:1058100083F811B183F80F6183F8100184F83671B1
:10582000E2B194F8373103EB4303234493F80F318B
:10583000B34298BF012309D927E091F8291001EB61
:105840004101214491F80F118E4221D3D8B28242F6
:1058500005EB03019B4603F10103EED8224482F8D5
:10586000377184F80EE19AF8012099F8011002F0DE
:105870007F022046FEF7BAF808F1010803995FFAA3
:1058800088F399423FF667AF84E64FF0000B584625
:10589000A318013A93F83611D2B2824283F8371135
:1058A000F6D8A3448BF83771DBE707EB470791F88D
:1058B0001111274487F8111194F80EC1BCF1000FA3
:1058C00000F0428194F83711914218BF012104D1B0
:1058D00056E09EF828E0964554D0C8B20F4684455D
:1058E00001F1010105EB010EF3D80CF1FF3C5FFA69
:1058F0008CF203EB430323440021FF200C2A83F89E
:105900000F0183F8111183F8101184F80E217FF430
:1059100068AF2A4600230127111B2944A1F5847092
:10592000007803330332A1F5857100B90F78242B79
:10593000F2D1BBF1000F19D00BEB4B02224492F8CD
:105940000F115B46B94258D0DE4604E091F80F01D2
:10595000B84227D09E4603EB4303234493F811211A
:1059600002EB420113462144002AEFD14FF00D0E05
:105970000C223AE792F811B11A4684F836B19BE747
:10598000002738460CF1FF3CBC45B0DD3A462244C6
:10599000013092F83811C0B2604582F837110246E2
:1059A000F5DBA4E70EEB4E0E91F81111A6448EF82C
:1059B000111194F83711914218BF012100F0DF80D6
:1059C0006F1897F829E008469645CFB201F101011A
:1059D00035D00C29F4D103EB43032344FF210022EB
:1059E00083F80F110B2183F8112183F810214FF058
:1059F0000C0E0A4684F80E11F7E692F811B11A4619
:105A000084F836B1D5E790F81181184684F83681CC
:105A100060E64FF0000E774604F5877509F1FF390F
:105A2000F1457FF775AE70462044013790F8386134
:105A3000FFB24F4580F837613846F5DB68E60B2842
:105A400018BF0246C7D02244013792F83811FFB27E
:105A50000A2F82F837113A46F5DDBCE794F8D800F2
:105A600094F892310138C01A10F0FF0094F8003118
:105A70003FF40EAD0022013203EB4303D1B22344C5
:105A8000884293F8DB30F6D802E5284600234FF031
:105A9000010E061B2E44A6F584773F7803330330AE
:105AA000A6F585760FB996F800E0242BF1D1B8F170
:105AB000000F19D008EB4800204490F80F614346CE
:105AC000764544D0474604E096F80FC1F4450FD020
:105AD0001F4603EB4303234493F8110100EB4006F8
:105AE000034626440028EFD14FF00D0C0C2010E5A2
:105AF00096F811E107EB4707E61986F811E194F8EB
:105B00003761864218BF012641D005EB060E9EF88C
:105B100029C0374684455FFA86FE06F101061CD08F
:105B20000C2EF2D103EB4303234400200B26FF2766
:105B300083F8110183F8100183F80F71304684F85F
:105B40000E614FF00C0CE4E44FF0FF3CCFE690F810
:105B50001181184684F83681D1E70B2F18BF3846DB
:105B6000E0D020440EF1010E90F838615FFA8EFE0D
:105B7000BEF10A0F80F837617046F2DDD2E70027E8
:105B80003A4660E74FF0FF3904F58775C0E54FF0FE
:105B9000000E7046E5E700BFF8B590F89031044676
:105BA00053B990F838301BB190F89531002B5CD187
:105BB00094F83230002B54D1B4F89A311BB994F8D0
:105BC0000E21002A43D1013BA4F89A3194F8903178
:105BD000274A94F830100133515CDBB2994284F8C3
:105BE00090319CBF002384F89031A37D632B32D980
:105BF000134413F8643CB4F89C7194F8D420B7FBB8
:105C0000F3F003FB10700004B0FBF3F0DAB1000412
:105C1000002202F1300354F823300132D96CDE6ED9
:105C20001D6F0E44AE1B06449D6EC1EB000C06EBCF
:105C30006C0605EBE625D86619679D6694F8D430A6
:105C4000D2B29342E5D80137A4F89C71F8BD204642
:105C5000FFF774F9BAE7B4F89C710137A4F89C71A6
:105C6000F8BD2046FFF7CAFBA6E7FFF7EBF9A3E76D
:105C7000F4AF000810B50023044680F89531FFF713
:105C80005DF92046BDE81040FDF7E0BB70B500248B
:105C9000064680F89541FFF751F93046FDF7D6FBEF
:105CA00096F8D4307BB106EB8405D5F8C00002F03D
:105CB00051FAD5F8C00002F02BF9013496F8D4302F
:105CC000E4B2A342EFD870BD00220346F0B403F85B
:105CD000012B00F18102FF2103F8011B9342FAD14D
:105CE00000F20113FF2102F8011B9A42FAD1124C73
:105CF0000027237EFDB223B1227A022A1BD103445E
:105D00005D70617E81B1237A022B14BF01260426C7
:105D1000002300E0617E00EB431201331144DAB24C
:105D2000964281F88150F5D80137312F04F11C04D7
:105D3000DFD1F0BC7047FEE7DCF100082DE9F0414F
:105D40000C46097A164601291D4617D012D302299E
:105D50000ED11078164F4FF4D07808FB0070A17A5E
:105D600064301A46FDF7EAFCA189B1B9BDE8F081BB
:105D7000BDE8F081A37AC554BDE8F0810C4F1A4606
:105D8000A17A3846FCF76EFF97F8603032789A4275
:105D9000ECD3013B3370BDE8F08133782A4608FB31
:105DA0000370BDE8F041C9B26430FDF7C7BC00BF65
:105DB000EC06002010B5FF290ABF00F18104441C45
:105DC0005109A25C82B0FF2A8DF8071016D00F4C43
:105DD000C2EBC20204EB82018C7C0A7C0134A41A5F
:105DE000E4B203FB04F38C7BC3F3C7131344032C0B
:105DF000DBB205D00DF10702FFF7A0FF02B010BD26
:105E000003F0FE03262B98BF2723F3E7DCF10008FD
:105E10000B7A012B12D00ED3022B0AD103784FF448
:105E2000D07202FB03F2897A064B60320A44D05CDE
:105E30007047002070478B7AC05C70478A7A024BAB
:105E4000D05C7047F0060020EC06002038B50D4607
:105E50001446FFF7DDFFAB7B0246092B00F2B28050
:105E6000DFE803F008304805657B81899528272AFB
:105E700000F0C6807C49A1FB0253DB0803EB8300E2
:105E8000A2EB4002303213F0FF0362700DD0A1FB91
:105E90000301C90801EB8101A3EB410303F13002C7
:105EA000D2B200232270A37038BD202200232270BA
:105EB000A37038BD6B69204653F82210BDE8384006
:105EC00004F018BB53B2002BD4DA0933C0F2A68019
:105ED0005342654ADBB2A2FB0312D20802EB8202F4
:105EE000A3EB420303F1300100222D236170A27065
:105EF000237038BD01325C49D2B2A1FB0203DB083A
:105F000003EB8300A2EB40023032627003F0FF0229
:105F1000002BCAD0A1FB0231C90801EB8101A2EB21
:105F200041023032D2B200232270A37038BD102A51
:105F300000F0958001324C49D2B2A1FB0253DB083C
:105F400003EB8300A2EB40023032627003F0FF02E9
:105F5000002BAAD0A1FB0201DEE7002A8AD1434B25
:105F60001868206038BD202A84D9414B1A889B7854
:105F70002280A37038BD632A7FF67CAF3D4B643A24
:105F8000204653F82210BDE8384004F0B3BA322A54
:105F90001ED83549A1FB0253DB0803EB8300A2EBBB
:105FA0004002303213F0FF03627030D0A1FB0301D6
:105FB000C90801EB8101A3EB4103303300222370B8
:105FC000A27038BD2C4B1A889B782280A37038BDF4
:105FD000333A2549D2B2A1FB0253DB0803EB83001D
:105FE000A2EB40023032627003F0FF029BB1A1FBD2
:105FF0000201C90801EB8101A2EB4102303250E7F6
:106000001E4B03CB1B7820602372616038BDA370E8
:106010005423237038BDA2705223FAE7524212482B
:10602000D1B2A0FB0123DB08DAB2A0FB0250C0080A
:1060300000EB800003EB8303A1EB4303A2EB4002E0
:1060400030323033D2B2DBB220252D200021227035
:10605000227163706371A570E070A17138BD084B47
:106060001868206038BD00BFCDCCCCCC6CEB0008EC
:1060700058EB00085CF7000870EB00085CEB0008C8
:1060800068EB000870B516460C460546FFF7C0FEE3
:10609000A37B012B0ABF42B2024692B2238A32444A
:1060A00012B219B28A4205DBB4F912309A42B8BF73
:1060B00013469BB2284621462A46DBB2BDE8704013
:1060C000FFF73CBE2DE9F047DFF82CE10746884694
:1060D0002025BEE80F0038607960BA60FB60BEE83A
:1060E0000F003E4638617961BA61FB610EF17404BC
:1060F0000EF2F469C7F8005405F11003B3F5806F90
:1061000010D8234653F830ED7A1958689968DB683F
:1061100047F805E050609160D360D7F8005410351F
:10612000C7F8005405F12003B3F5806F1ED823464D
:1061300053F820CD7A19D3F804E09868D96847F865
:1061400005C0C2F804E09060D160D3F810C0D3F865
:1061500014E09869D969C2F810C0C2F814E09061DF
:10616000D161D7F800542035C7F8005405F19003E9
:10617000B3F5806F09D878192146902204F094F87D
:10618000D7F800549035C7F8005404F5D0744C4546
:10619000B2D108F101085FFA88F808F5003808F173
:1061A00077084FEA882803F009FE404603F046FED0
:1061B000032DA9460CD94446C8EB070A20465AF8D5
:1061C0000410043D03F05CFE032D04F10404F5D833
:1061D0001FFA89F14B1E9BB241B101331F440021CC
:1061E00016F8013B1944BE4289B2F9D109EB080007
:1061F000BDE8F04703F074BEEC0600202DE9F8433B
:106200008E4E04464FF0200E88460FCE206061600F
:10621000A260E3600FCE20617046E36100F11003DD
:10622000B3F5806F06F2F46725466161A26106F15D
:106230007406C4F800E412D8334653F830CD22185F
:10624000D3F804E09968DB6844F800C0C2F804E0C1
:106250009160D360D4F800041030C4F8000400F159
:106260002003B3F5806F22D8334653F8209D2218BF
:10627000D3F804C0D3F808E0D96844F80090C2F815
:1062800004C0C2F808E0D160D3F81090D3F814C06D
:10629000D3F818E0D969C2F81090C2F814C0C2F857
:1062A00018E0D161D4F800042030C4F8000400F1F3
:1062B0009003B3F5806F0BD906F5D076BE428146C8
:1062C00015D0484600F11003B3F5806FC7D8B3E787
:1062D00031462044902203F0E7FFD4F8000406F58D
:1062E000D0769030BE42C4F800048146E9D108F16E
:1062F0000101C9B201F5003177318E0231462046E5
:106300004A4603F0D1FF1FFA89F3591E39F80600F7
:1063100089B243B101312144002315F8012B134404
:106320008D429BB2F9D1984202D00020BDE8F8839B
:106330000023C4F800344148FBF760FED4F8005451
:1063400005F1200CBCF5806F17D804EB050EDEF8C4
:106350000000DEF80410DEF80820DEF80C30374EBE
:1063600065460FC6DEF81000DEF81410DEF81820BF
:10637000DEF81C30C4F800C40FC605F11002B2F5F7
:10638000806F2F4B12D82544D5F800E06E68A868BE
:10639000E96843F830EC43F82C6C43F8280C43F8D8
:1063A000241CD4F800541035C4F8005405F1200220
:1063B000B2F5806F1FD82544D5F800E06E68A86854
:1063C000E96843F820EC43F81C6C43F8180C43F8D8
:1063D000141CD5F810E06E69A869E96943F810EC5F
:1063E00043F80C6C43F8080C43F8041CD4F8005430
:1063F0002035C4F8005405F19002B2F5806F0AD838
:1064000018469022611903F04FFFD4F80024034688
:106410009032C4F8002403F5D073BB4207D0D4F8FF
:10642000005405F11002B2F5806FBFD8ABE7034806
:10643000FCF740FC0120BDE8F88300BFEC0600201B
:10644000800700202DE9F0432A4D00220646C0F8BF
:106450000024074683B005F5CC60002304E0023336
:10646000162B144614D02246E9180C8B911CB1F55A
:10647000806FADF80640F2D8BDF806100233B15275
:10648000D6F80044162B04F10204C6F80044EAD101
:1064900005F5CC75854201D02246DEE703F08EFC7F
:1064A000154803F0CBFC032CA1460BD9124DB04686
:1064B0002846043C58F8041B03F0E2FC032C05F1C9
:1064C0000405F5D81FFA89F14B1E9BB241B1013387
:1064D0001E44002117F8013B1944B74289B2F9D193
:1064E00009F1006000F5EE3003B0BDE8F04303F0C1
:1064F000F7BC00BFD00D002000DC0108F0B5354E20
:1065000000220546C0F80024074683B0A6F5CC60FB
:10651000002304E00233162B144614D02246C1187F
:106520000C8B911CB1F5806FADF80640F2D8BDF828
:1065300006100233A952D5F80044162B04F10204C8
:10654000C5F80044EAD100F5CC70B04201D0224633
:10655000DEE721492246284603F0A6FE04F1006149
:10656000A4B201F5EE31631E08889BB284B30133F7
:10657000E918002317F8012B13448F429BB2F9D17D
:10658000984202D0002003B0F0BD0021134CC5F8A2
:10659000001404F11607234601E0D5F800148A1C04
:1065A000B2F5806F4FF0010004D8695AC5F8002495
:1065B000ADF80610BDF806200233DA82BB426075E2
:1065C000EBD104F5CC74A642DDD0D5F80014E0E799
:1065D0002346D5E73014002000DC0108D00D002050
:1065E0002DE9F041394E044620270FCE206061602E
:1065F000A260E3600FCEE3613B46A26103F11002AB
:10660000B2F5806F06F17405C4F800742061616111
:1066100006F2F46610D82A4652F830CDE1185768D1
:106620009068D26844F803C04F608860CA60D4F8AC
:1066300000341033C4F8003403F12002B2F5806F47
:106640001ED82A4652F8208DE118D2F804C0976867
:10665000D06844F80380C1F804C08F60C860D2F8E5
:106660001080D2F814C09769D069C1F81080C1F8C1
:1066700014C08F61C861D4F800342033C4F80034EA
:1066800003F19002B2F5806F0BD905F5D075B542D4
:10669000194615D00B4603F11002B2F5806FCBD826
:1066A000B9E72946E018902203F0FEFDD4F8003443
:1066B00005F5D0759033B542C4F800341946E9D1D8
:1066C0002046BDE8F041FBF745BB00BFEC060020CB
:1066D000F0B500230546C0F8003483B03D48FBF711
:1066E0008DFCD5F8004404F1200CBCF5806F0ED869
:1066F0002F1938687968BA68FB68364E64460FC649
:1067000038697969BA69FB69C5F800C40FC6324BAC
:1067100004F11002B2F5806F03F5D06612D82C4454
:10672000D4F800C06768A068E16843F830CC43F84B
:106730002C7C43F8280C43F8241CD5F80044103472
:10674000C5F8004404F12002B2F5806F1FD82C4434
:10675000D4F800C06768A068E16843F820CC43F82B
:106760001C7C43F8180C43F8141CD4F810C067695B
:10677000A069E16943F810CC43F80C7C43F8080C9D
:1067800043F8041CD5F800442034C5F8004404F153
:106790009002B2F5806F0AD818469022291903F0AA
:1067A00083FDD5F8002403469032C5F8002403F594
:1067B000D073B34207D0D5F8004404F11002B2F50B
:1067C000806FBFD8ABE7034803B0BDE8F040FCF7EB
:1067D00071BA00BFEC0600208007002090F88831D5
:1067E000044A03EBC30302EB83031B7E80F888316A
:1067F000704700BF9000002090F888310D4803EBEF
:10680000C30300EB8302D36910B44BB148681C7812
:1068100092F82010204440B24CB2A04203DA197022
:106820005DF8044B704792F921108842B8BF0146C9
:10683000C9B2F4E79000002038B590F98B31114DC2
:106840001B0103F10802A95804462A44A9B12B44AC
:10685000D868C2070DD5401022589B682044D358F1
:10686000984794F98B311B011D442B7984F88831AA
:1068700038BD9B6804EB6000F2E75268D107F3D59E
:10688000E5E700BF50F8000890F98D310B2B03D0DD
:10689000072380F8883170470522002380F888217B
:1068A00080F88D31704700BF022380F89431704723
:1068B00090F88A31496810B41944C9B2CBB25AB2BF
:1068C000002A80F88A310EDB0A4C0B4B247853F8EF
:1068D00024305DF8044B9B5C312B04BF01F1FF3188
:1068E00080F88A117047002380F88A315DF8044BE4
:1068F000704700BFEC060020DCF7000810B40F4A18
:1069000090F88C314FF4CC7404FB032390F88D2164
:10691000043390F8590103EB42024968148B0028B4
:1069200014BF0120202000FB114080F310001083D1
:10693000012159755DF8044B704700BFCC0D002054
:1069400090F8883110B40F4C03EBC30304EB8302BF
:10695000D369012480F894414BB148681C7892F8BF
:106960002010204440B24CB2A04203DA19705DF806
:10697000044B704792F921108842B8BF0146C9B252
:10698000F4E700BF90000020034B0021012283F8B0
:10699000451D83F8442D7047EC06002090F98D21A9
:1069A000034B00F58A7053F822100A4602F040BFEC
:1069B0008CF90008B0F99231134A10B482FB0342FB
:1069C000D917C1EB620202EB4201A3EB81030F492D
:1069D0001BB201EB430411F81310637880F85A11CD
:1069E000202B02D10A4B12B29B5C002400F5AD7142
:1069F00080F85B3180F85C410A4600F58A705DF8EA
:106A0000044B02F015BF00BFABAAAA2ACCF80008BD
:106A1000C0F8000890F98B31034A1B01D15800F5EA
:106A20008A700A4602F004BF50F80008024900F5D7
:106A30008A700A4602F0FCBEE8F80008024900F538
:106A40008A700A4602F0F4BEECF80008084A094BC6
:106A5000127800F58A7053F8221090F97630064AC1
:106A6000CB5CC3EBC30302EB83014A6802F0E0BED8
:106A7000EC060020DCF70008DCF1000838B50E4A0F
:106A80000E4B127800F5AD7553F8221090F98A314B
:106A90000B4ACB5C0446C3EBC30102EB81010948FE
:106AA0002A46FFF7D3F9294604F58A702A46BDE83D
:106AB000384002F0BDBE00BFEC060020DCF7000845
:106AC000DCF1000860140020094B00F5AD711A8854
:106AD0009B78A0F85A218B7090F8902190F85B3148
